:020000041000EA
:1000000000B5324B212058609868022188439860DF
:10001000D860186158612E4B002199600221596106
:100020000121F02299502B49196001219960352056
:1000300000F044F80222904214D00621196600F024
:1000400034F8196E01211966002018661A6600F04E
:100050002CF8196E196E196E052000F02FF8012189
:100060000842F9D1002199601B49196000215960AB
:100070001A491B48016001219960EB211966A021F2
:10008000196600F012F800219960164914480160C1
:100090000121996001BC002800D000471248134993
:1000A000086003C880F30888084703B5996A0420EC
:1000B0000142FBD001200142F8D103BD02B5186610
:1000C0001866FFF7F2FF186E186E02BD00000240BE
:1000D000000000180000070000035F00212200005C
:1000E000F4000018222000A00001001008ED00E03C
:1000F00000000000000000000000000074B24E7A12
:1001000000200420F7010010C3010010C5010010F9
:10011000C1010010C1010010C1010010C101001097
:10012000C1010010C1010010C1010010C701001081
:10013000C1010010C1010010C9010010CB01001065
:10014000CD010010CD010010CD010010CD01001037
:10015000CD010010CD010010CD010010CD01001027
:10016000CD010010CD010010CD010010CD01001017
:10017000CD010010CD010010CD010010CD01001007
:10018000CD010010CD010010CD010010CD010010F7
:10019000CD010010CD010010CD010010CD010010E7
:1001A000CD010010CD010010CD010010CD010010D7
:1001B000CD010010CD010010CD010010CD010010C7
:1001C00000BE00BE00BE00BE00BE00BEEFF3058054
:1001D000103800BEF2EB8871D44D0C10404E0C105C
:1001E0003402001090A31AE700201F49086006C8D7
:1001F00081F3088810471D48006800282FD10DA4FE
:100200000ECC002902D000F012F8F9E71849194A7B
:10021000002000E001C19142FCD1174988471749ED
:1002200088471749884700BEFDE701C901C29A42C5
:10023000FBD37047404E0C10C0000020C83F002088
:10024000548D0C100000042000000420548D0C106C
:10025000001004200010042000000000704709482E
:100260003EF010FB0047000008ED00E0000000D069
:10027000D83F0020449A01208DD003103103001094
:10028000C1D103105756000006005250ABB3605363
:100290008090061006005250861C030290900610B3
:1002A000060052505422A29D9C9006100500525008
:1002B000DE65F468548D0C10F8B5C0460648074951
:1002C000091A8B10C90FC91810B5491003D0044B77
:1002D000002B00D0984710BDC83F0020C83F002029
:1002E00000000000054B10B5002B03D00449054861
:1002F00000E000BFFFF7E2FF10BDC04600000000B5
:10030000E0770120B81A061010B542F04BFE0C2021
:100310003FF0D0FB040001F055FD200001F058FD36
:10032000200001F01FFE10BD10B560F053FA000070
:10033000842010B540003FF0BDFB040000F016FB28
:10034000200001F01BFB044842F000FE200000F0FA
:1003500061FB002010BDC04609030010044B10B51E
:100360001868002803D09968091A3FF0AFFB10BD48
:1003700018A80020F0B5C646722300B59046CB5AA7
:10038000028A04000D009A420AD0428A9A4207D09B
:10039000214B1A685B688261C36180BCB846F0BDBE
:1003A000A669E76933003B4312D01C4B5A6A974257
:1003B000F3D89B6AB3421FD37223228AEB5A9A4224
:1003C0001DD0628A9A42E8D1154805F091F8E4E719
:1003D0003CF046F80027134E802336184F411B0689
:1003E0009F4202D30126104F76420C4BA661E76173
:1003F0005A6A9742D1D8DCE79742DDD1CDE7404633
:1004000043425841094B40421840094B9C466044C6
:1004100005F06EF8C1E7C046008E061000400540AA
:10042000E1E437F700093D00FFFFFF7FD81DA2A3DD
:10043000CD66D54318239C46F0B5DE4657464E465A
:10044000454684446346E0B58BB0036007930123BF
:100450004360FE239B05036110239C4684440026D1
:10046000634604008660C660466186618A4618005D
:100470000021069304925EF029FD6368050098420E
:1004800012D9012800D107E180239B05984200D3AF
:1004900010E1870038003FF00DFB3A000021060014
:1004A0003FF0FCFA26606560049B534513D0564626
:1004B000E168002900D0B9E0A3683088002B03D19F
:1004C00010E01B68002B0DD09A888242F9D1049B62
:1004D00008369E42EDD10BB0F0BCBB46B246A946F1
:1004E000A046F0BD616883463EF026FA0D000C2060
:1004F0003FF0E0FA002201213388026083807368B4
:10050000626883608046E36808A8009106995EF0FF
:1005100031FD06AB1B7A002B13D12368AD00994641
:100520004D442B68002B6FD042461B6813602B682C
:100530001A60E168049B01310836E1609E42B8D13F
:10054000C9E7099B9A46012B00D1A8E080239B05AF
:100550009A4500D3A8E053469D0028003FF0AAFA30
:100560002A00002181463FF099FA0023A7680393EF
:10057000A36008339C46A44463460593002F2DD006
:10058000220033004C46564691469A4605E01268D2
:100590002A601B681D60002F1AD03D003100A8881A
:1005A0003EF0CAF98B00E3181A683F68002AEED1C2
:1005B0004A4692682A604A469560059A1A602B68F6
:1005C000002B02D0039B9B001D510391002FE4D10F
:1005D0004B465246A146B2461C0016002068079BB7
:1005E0006168834202D089003FF070FA534663602D
:1005F0004B465146236058463EF09EF90D00AD0033
:100600004D442B68002B8FD14246A368A260136033
:10061000002B07D0988861683EF08EF94B46424621
:100620008900CA50230008332B6082E7A246636822
:100630000396994623680593039B49461E8830001C
:100640003EF07AF9059A8B00D358B3460C009846D1
:10065000002B1DD01B6835009F88BD420DD01E6841
:10066000002E15D0B7884946380098463EF064F908
:10067000A1420DD13300BD42F1D143461B68002B8E
:1006800006D0039B049A083303939A42D4D122E7FD
:100690002500039E54462AE7A661079E02E7002331
:1006A000A361079B994660E78023DB059A4505D344
:1006B0005EF098FB8023DB059842F9D25EF082FB66
:1006C000F0B5DE4657464E4645460300E0B51833C2
:1006D0008BB00360079301234360FE239B050361F6
:1006E00003000026103304008660C6604661866100
:1006F0008A4618000021069303925EF0E7FB6368C8
:100700000500984212D9012800D104E180239B05FD
:10071000984200D30DE1870038003FF0CBF93A0052
:10072000002106003FF0BAF926606560039B53453F
:100730003BD053462600E4685746A2460233029354
:100740005346002B38D03B8899460593736848463A
:10075000190004933EF0F0F833688A00D3580D0076
:100760009B46002B38D01B6888469C882500A945ED
:100770000FD01C68002C00D1CBE0A588049928007C
:100780009B463EF0D9F8414500D0C2E02300A94580
:10079000EFD15B461B684546002B1DD0029B0837F6
:1007A00008330293039B9F42CAD10BB0F0BCBB46F7
:1007B000B246A946A046F0BDB3683988002B05D0E3
:1007C0009A888A42EAD01B68002BF9D1080005916B
:1007D00071683EF0B1F80D000C203FF06BF900237A
:1007E00003603B88062283800299040006303FF0B4
:1007F0005BF90121F368726808A8009106995EF020
:10080000B9FB06AB1B7A002B0FD13368AD009846BD
:1008100045442B68002B6CD01B6823602B681C6040
:10082000F36801339A46F360B8E7099B9B46012BB6
:1008300074D080239B059B4575D25B469D002800A4
:100840003FF038F92A00002180463FF027F90023C5
:10085000B5689946B36008339A46B244002D32D049
:1008600031003A00534646465F46A24693462C0066
:100870008846049305E012682A601B681D60002CFE
:100880001AD025003900A8883EF056F88B00F318DE
:100890001A682468002AEED1424692682A604246CD
:1008A0009560049A1A602B68002B02D04B469B007F
:1008B0009D518946002CE4D143465A46B046BB467A
:1008C000544617001E003068079B7168834202D0AF
:1008D00089003FF0FBF85B4673604346594633603E
:1008E00005983EF029F80D00AD0045442B68002B1B
:1008F00092D1B368B4602360002B06D098887168E9
:100900003EF01AF843468900CC50330008332B6080
:1009100086E7454660E7A661079E05E70023B361C9
:10092000079B984693E78023DB059B4505D35EF044
:1009300059FA8023DB059842F9D25EF043FAC046AB
:1009400070B5084D28005EF03BF8074C002801D137
:10095000200070BD200003F049FC28005EF04CF838
:10096000F6E7C0467C4300205CAD0020F8B50521C9
:10097000040001F05DFB0023D822A3502200D832EE
:1009800053609360E822A3541E4B1F4F18685968A8
:1009900023001E4DE83310329860D960A55098614D
:1009A000D96138005EF00CF8194E00281CD1D8200F
:1009B0003FF080F80500052101F03AFB30002900E6
:1009C00004F07AFA38005DF0FBFF002813D1D8203C
:1009D0003FF070F80500052101F02AFB30002900E6
:1009E00004F06EFA2000F8BD300003F0FFFB380081
:1009F0005EF002F8DBE7300003F0F8FB38005DF052
:100A0000FBFFE4E7008E06107C4300200C020C0183
:100A10005CAD0020F0B5DE4657464E464546E0B593
:100A20008BB08046FFF78CFF04F048FA0400FFF714
:100A300087FF04F047FA0390FFF782FF04F03AFAC9
:100A40000500FFF77DFF04F03FFA2022002105900A
:100A50003FF024F8E82343449946D82343449A4678
:100A6000039B7D4A7033079370239C46A4446346DE
:100A700001927A4A7A4F02927A4A7B4E08927B4AD6
:100A8000069304927A4A93467A4A099238005DF0B6
:100A900097FF002834D1300003F0D8FB002D3AD066
:100AA00001985DF08DFF002800D08FE0029803F0E0
:100AB0005DFB200002F030F9E8234246D35C002BB6
:100AC00000D07DE07233E35A002B00D082E04B4629
:100AD0009868D96803000B4300D19BE0664B5A6AC3
:100AE0009142D3D89B6A834201D29142CED0E8236F
:100AF000012241463800CA545DF062FF0028CAD086
:100B0000300003F073FB38005DF076FF300003F037
:100B10009DFB002DC4D104985DF052FF002866D1E2
:100B2000584604F0F3FD200002F0F6F8200002F031
:100B3000C7F90021504603F0EBF9200002F0FCFA5F
:100B4000E8234246D35C002B4BD17233E35A002B8F
:100B500059D14B469868D96803000B436BD0464B7C
:100B60005A6A914208D89B6A834201D2914203D0CB
:100B7000E82301224146CA54200001F047FD5046B7
:100B8000002103F0DDF91022069907983EF08CFF52
:100B9000200003F05BF90390200002F0A9FC0100A3
:100BA000039859F047FD059859F030FD5046012152
:100BB00003F0C6F901200021404242F061FE65E7E2
:100BC000012221004846FFF7D5FB5FE701985DF061
:100BD00013FF6BE74946089B1A685B688A60CB6025
:100BE00054E7002221004846FFF7C4FBC4E75B46F8
:100BF00009981D605D609D601D615FF0F3FD0498C4
:100C00005DF0FAFE8CE74946089B1A685B688A60CB
:100C1000CB60B1E73BF024FC00233222801859411D
:100C200080231B06994202D30120144940424B46BF
:100C30009860D96052E73BF013FC00233222801801
:100C4000594180231B06994202D301200B4940429F
:100C50004B469860D96082E77043002010A80020BE
:100C60007C430020008E06105CAD00207443002001
:100C700018A800205D03001000400540FFFFFF7F23
:100C8000F0B5C64600B5040004F046FC4E4B984251
:100C90005ED04E4B984200D180E0002801D0002069
:100CA00057E04B4F38005DF08BFE4A4B98460028CA
:100CB00059D1404604F002F9050038005DF080FE8D
:100CC000002849D1404604F0FDF80600D834280039
:100CD00002F022F80021200003F01AF9280001F0A8
:100CE00095FC0021200003F02BF930002900102290
:100CF000703070313EF0D8FE38005DF061FE0028A3
:100D000038D14246344BD35C012B17D0032B38D05B
:100D10007222AA5A023BDBB2D10541D4012B01D980
:100D2000930515D4530747D4130747D4D30747D4A3
:100D3000930747D41206B2D506200AE07222AA5AB7
:100D4000D10536D59205AAD57022AA5C134225D1C9
:100D5000012080BCB846F0BD404603F047FA380099
:100D60005DF04AFEAEE7180003F040FA38005DF08F
:100D700043FE9EE7404603F039FA38005DF03CFE42
:100D8000BFE77223EB5ADA0500D488E79B0500D44D
:100D900085E77023EB5CDB0700D480E70220D8E70F
:100DA0009105BFD57021695CC907F7D4012BCFD855
:100DB000B8E7500A1840CCE70320CAE70720C8E785
:100DC0000420C6E70520C4E7A58477E7E1E437F708
:100DD0007C4300205CAD0020EA2F0000F0B5040049
:100DE000C646CB6800B50020E36023004A680D00CA
:100DF00020606260A06010331031C0C9C0C32700FA
:100E0000A0611837012A0CD080239B059A4247D253
:100E1000960030003EF04EFE3200002107003EF00A
:100E20003DFEAD682760002D36D00C203EF042FE1E
:100E300000220300070004C32A1D03CA03C3A760DE
:100E4000B88861683DF078FD220023688900083287
:100E5000CA502E68002E1FD0002398460C203EF06A
:100E600029FE42460300050004C3321D03CA03C322
:100E70003D60A88861683DF05FFD8B002168C9185E
:100E80000B68002B04D03668002E05D02F00E5E754
:100E90000F603668002EF9D1200080BCB846F0BD46
:100EA0008023DB059A4201D35DF09CFF5DF08AFF51
:100EB000F0B50400C646CB6800B50020E36023000F
:100EC0004A680D0020606260A06010331031C0C914
:100ED000C0C32700A0611837012A0CD080239B05CE
:100EE0009A4247D2960030003EF0E4FD32000021E5
:100EF00007003EF0D3FDAD682760002D36D00C20F2
:100F00003EF0D8FD00230700082208C0291D3EF04E
:100F1000CBFDB8886168A7603DF00EFD2200236814
:100F200089000832CA502E68002E1FD00023984630
:100F30000C203EF0BFFD43460500082208C0311DCD
:100F40003EF0B2FDA88861683D603DF0F5FC8B0085
:100F50002168C9180B68002B04D03668002E05D014
:100F60002F00E5E70F603668002EF9D1200080BC25
:100F7000B846F0BD8023DB059A4201D35DF032FF15
:100F80005DF020FFF0B557468A46190018239C46AD
:100F9000DE464E46454684446346E0B58BB003606A
:100FA000079301234360FE239B05036110239C46A6
:100FB00084440026634604008660C66046618661FC
:100FC0001800069304925DF081FF63680500984263
:100FD00012D9012800D111E180239B05984200D34A
:100FE0001AE1870038003EF065FD3A000021060056
:100FF0003EF054FD26606560049B9A4513D056462A
:10100000E168002900D0C2E0A3683088002B03D13A
:1010100011E01B68002B0ED09A888242F9D1049B04
:101020003C36B342EDD120000BB0F0BCBB46B2461B
:10103000A946A046F0BD616883463DF07DFC0D00E9
:1010400040203EF037FD00228046338802608380D6
:10105000311D0830FFF7C2FE4046310024302031F8
:10106000FFF726FF0121E368626808A8009106994E
:101070005DF080FF06AB1B7A002B13D12368AD0017
:1010800099464D442B68002B6FD042461B68136075
:101090002B681A60E168049B01313C36E160B34281
:1010A000AFD1C0E7099B9A46012B00D1A9E080236C
:1010B0009B059A4500D3A9E053469D0028003EF0C9
:1010C000F9FC2A00002181463EF0E8FC0023A768D5
:1010D0000393A36008339C46A44463460593002F02
:1010E0002DD0220033004C46564691469A4605E0E4
:1010F00012682A601B681D60002F1AD03D00310065
:10110000A8883DF019FC8B00E3181A683F68002A94
:10111000EED14A4692682A604A469560059A1A605E
:101120002B68002B02D0039B9B001D510391002FC5
:10113000E4D14B465246A146B2461C001600206838
:10114000079B6168834202D089003EF0BFFC534692
:1011500063604B465146236058463DF0EDFB0D0061
:10116000AD004D442B68002B8FD14246A368A2608E
:101170001360002B07D0988861683DF0DDFB4B467B
:1011800042468900CA50230008332B6082E7A246FA
:1011900063680396994623680593039B49461C8818
:1011A00020003DF0C9FB059A8B00D358A3460E00E2
:1011B0009846002B1ED01B6825009F88BD420DD08D
:1011C0001C68002C16D0A7884946380098463DF088
:1011D000B3FBB1420ED12300BD42F1D143461B689F
:1011E000002B07D0039B049A3C3303939A42D4D13B
:1011F000544618E735005446039E21E7A661079E32
:10120000F8E60023A361079B99465FE78023DB058F
:101210009A4505D35DF0E6FD8023DB059842F9D2BF
:101220005DF0D0FDF0B5DE46454657464E468E4A47
:10123000E0B511008D4C8E4BA54403600AAB0193C1
:1012400009AB0500103900932CA808ABFFF7F2F8A2
:10125000884A002611000DAB01930CAB80AC10390D
:10126000009333A80BABFFF72BFA2CA9268081A89B
:10127000FFF7B4FD33A988A8FFF71AFE7E4A10AB2A
:10128000110001930FAB783900933AA80EABFFF72A
:10129000D1F87A4A0127110013AB019312AB303910
:1012A000009341A811ABFFF70BFAA7873AA990A8C2
:1012B000FFF794FD41A997A8FFF7FAFD704A16AB16
:1012C0001100019315AB2039009348A814ABFFF728
:1012D000B1F81022002152A83EF0E0FB55AB4F932D
:1012E0009846FE239B0506225393782348A9E25291
:1012F0009FA850975196FFF771FD4FA9A6A8FFF739
:10130000D7FD604A19AB1100019318AB5039009317
:1013100056A817ABFFF78EF85B4A1CAB1100019380
:101320001BAB183900935DA81AABFFF7C9F9B423BA
:10133000032256A9E252AEA8FFF750FD5DA9B5A859
:10134000FFF7B6FD514A1FAB110001931EAB4039A8
:10135000009364A81DABFFF76DF84D4A22AB110056
:10136000019321AB103900936BA820ABFFF7A8F9CC
:10137000F023042264A9E252BDA8FFF72FFD6BA958
:10138000C4A8FFF795FD434A25AB1100019324AB98
:101390004839009372A823ABFFF74CF83E4A28ABBC
:1013A0001100019327AB3039009379A826ABFFF7E2
:1013B00087F9962305225B00E25272A9CCA8FFF7B9
:1013C0000DFD79A9D3A8FFF773FD0022280003AB18
:1013D0001A702BAB02932AAB019329AB0093210027
:1013E00000231030DAAAFFF7CDFDCBAFBE6A002E86
:1013F00006D0300036680C213EF068FB002EF8D194
:101400007A6A0021386A92003EF048FB0023FB62B2
:10141000BB623B00386A3833796A984202D089004F
:101420003EF054FBFE68002E06D0300036680C21DA
:101430003EF04CFB002EF8D1BA680021786892008B
:101440003EF02CFB00233B61FB603B0078681C33C3
:10145000B968984222D089003EF038FB3B003C3B03
:10146000BC421FD01F00C1E7041D061094FCFFFF03
:101470002C7A0610F41C0610E41C06106C1C0610D6
:101480003C1C06101C1C0610CC1B0610B41B0610BE
:10149000741B0610641B06101C1B06103B003C3B13
:1014A000BC42DFD17B9E002E06D0300036680C2176
:1014B0003EF00CFB002EF8D17A9A00217998920028
:1014C0003EF0ECFA002379987C937B937FAB7A997A
:1014D000984202D089003EF0F9FA749E002E06D0A0
:1014E000300036680C213EF0F1FA002EF8D1739AE4
:1014F0000021729892003EF0D1FA00237298759301
:10150000749378AB7399984202D089003EF0DEFA6A
:101510006D9E002E06D0300036680C213EF0D6FAC3
:10152000002EF8D16C9A00216B9892003EF0B6FA2A
:1015300000236B986E936D9371AB6C99984202D0B7
:1015400089003EF0C3FA669E002E06D03000366851
:101550000C213EF0BBFA002EF8D1659A0021649868
:1015600092003EF09BFA00236498679366936AABFF
:101570006599984202D089003EF0A8FA5F9E002E3D
:1015800006D0300036680C213EF0A0FA002EF8D1CB
:101590005E9A00215D9892003EF080FA00235D98EB
:1015A00060935F9363AB5E99984202D089003EF0EE
:1015B0008DFA589E002E06D0300036680C213EF081
:1015C00085FA002EF8D1579A0021569892003EF0E5
:1015D00065FA00235698599358935CAB57999842F3
:1015E00002D089003EF072FA519E002E06D03000E3
:1015F00036680C213EF06AFA002EF8D1509A00218C
:101600004F9892003EF04AFA00234F985099529317
:101610005193404502D089003EF058FA4A9E002E70
:1016200006D0300036680C213EF050FA002EF8D17A
:10163000499A0021489892003EF030FA00234898D9
:101640004B934A934EAB4999984202D089003EF0A1
:101650003DFA439E002E06D0300036680C213EF045
:1016600035FA002EF8D1429A0021419892003EF0BE
:1016700015FA002341984493439347AB429998420B
:1016800002D089003EF022FA3C9E002E06D03000A7
:1016900036680C213EF01AFA002EF8D13B9A002150
:1016A0003A9892003EF0FAF900233A983D933C9321
:1016B00040AB3B99984202D089003EF007FA359E34
:1016C000002E06D0300036680C213EF0FFF9002EC7
:1016D000F8D1349A0021339892003EF0DFF90023CC
:1016E00033983693359339AB3499984202D08900B8
:1016F0003EF0ECF92E9E002E06D0300036680C210C
:101700003EF0E4F9002EF8D12D9A00212C98920099
:101710003EF0C4F900232C982F932E9332AB2D99D1
:10172000984202D089003EF0D1F901230022052120
:10173000082023800133238201332384013323864D
:101740003C336260E260A2606261E261A261626257
:10175000E262A2626263E263A263E152103301318A
:10176000EA622A636A63AA63EA632A646A64AA640F
:10177000EA642A656A65AA656264E264A264E15269
:1017800010339C4601316265E265A265E152693120
:101790006266E266A2666052103101306267E267FB
:1017A000A2676052043162500831625004396250BD
:1017B00001300831605204316250083162500439FE
:1017C0006250013008316052043162500831625079
:1017D00004396250013008316052043162500831DE
:1017E0006250043962500130083160520431625055
:1017F0000831625004396250013008316052AC4403
:1018000004316250EA546346AB66EB6605930023ED
:1018100000270831625004396250013008316052AB
:10182000043162500831625004396250013008318D
:101830006052043162500831625004399946625056
:10184000C0AB80ACA8466A662A67A3463D009A46AC
:101850002700002D59D04346DC6E3B88228A9A42ED
:1018600053D2059B9C4200D17CE03B88228A934264
:101870009B415B42079320203EF01CF949463B8880
:101880007D680382BB68060006935A1B4161816133
:10189000C161AB4253D0384B04929A4265D81000D4
:1018A0003EF008F9049A70619446844463460493B8
:1018B000F361069BAB4202D029003EF0F5F8049B91
:1018C0002200B3613100059B07985DF0B9F94346EA
:1018D0001D6F01351D6710375745BAD145465C4627
:1018E0003E00103E7068002826D0F168091A3EF0CC
:1018F000EDF8A642F5D12800DB239B009D44F0BC07
:10190000BB46B246A946A046F0BD43465C6E002CDD
:1019100019D0398804E0A3680120002B07D01C00EF
:10192000228A9142F7D3E3680020002BF7D10028E8
:101930000AD19142CFD994E7A642D2D1DBE7002366
:1019400000200493AEE7059C43469B6EA34200D162
:1019500087E720005DF058F93B88028A9A4200D25E
:101960007FE7B8E70123079385E7002A01DA5DF0F6
:1019700039FA5DF027FAC046FCFFFF7FF0B5D64686
:101980004F464646C0B5D14F050084B038005DF0E3
:1019900017F8CF4E002800D058E1CE4BF35C002B57
:1019A00000D02BE1CC4BF35C002B00D026E13800BB
:1019B0005DF006F8002800D066E1300003F07EFA02
:1019C000814600F097FB4AF00DFF60203EF072F870
:1019D0008046602200213EF061F84246BF4B2C0059
:1019E00013604346BE4AD8349A81DA811A825A82F9
:1019F00041460022200002F039FB0C203EF05AF84C
:101A000080460C2200213EF049F84246B54B414643
:101A100013602000002202F06FFB08203EF04AF81D
:101A2000002398464360B04B010003600022200071
:101A300002F062FB24203EF03DF882462422002181
:101A40003EF02CF85246A94B51461360200000226C
:101A500002F052FB0C203EF02DF843464360037227
:101A6000A34B010003600022200002F045FB0C2084
:101A70003EF020F84346436003729E4B0100036032
:101A80000022200002F038FB24203EF013F88046AC
:101A9000242200213EF002F84246974B4146136053
:101AA0002000002202F028FB0C203EF003F88046C4
:101AB0000C2200213DF0F2FF4246904B414613605C
:101AC0002000002202F018FB20203DF0F3FF8046AA
:101AD000202200213DF0E2FF4246894B414613603F
:101AE0002000002202F008FB58203DF0E3FF804672
:101AF000582200213DF0D2FF4246824B41461360FE
:101B00002000002202F0F8FA74203DF0D3FF804656
:101B1000742200213DF0C2FF4046FFF783FB41469F
:101B20000022200002F0E8FA24203DF0C3FF8046A6
:101B3000242200213DF0B2FF4246734B4146136020
:101B40002000002202F0D8FA0C203DF0B3FF8046BE
:101B50000C2200213DF0A2FF42466C4B414613602F
:101B60002000012202F0C8FA14203DF0A3FF8046B5
:101B7000142200213DF092FF4246654B414613601E
:101B80002000002202F0B8FA34203DF093FF804696
:101B9000342200213DF082FF42465E4B41461360F5
:101BA0002000002202F0A8FA5B483DF083FF804647
:101BB0000021594A3DF072FF4246584B2000136005
:101BC00001235B425360564B41469362002202F070
:101BD00093FA2800FFF754F801283ED01ADC0028B9
:101BE00006D1CC234A46D3585C78200058F0FEFC3E
:101BF00004B0E0BCBA46B146A846F0BD494803ABC4
:101C000002AA01A939F0A2F9002844D14648454961
:101C10003BF0DAFA02284FD0C31E042BE8D84A461C
:101C2000CC23D1584A7803284DD00124042806D06B
:101C30000024052803D0C31F58424341DC1C9442B2
:101C4000D3D048464C7001F043F9CEE7300002F0A3
:101C5000CDFA38005CF0D0FE9FE638005CF0B0FEB4
:101C6000002822D10121300003F016F9FF2058F09E
:101C7000BDFC2E4C20005CF0A3FE002811D10021F9
:101C80002B4802F061FAB3E7300002F0AFFA3800F7
:101C90005CF0B2FE91E6039A0299019839F01AF9C4
:101CA00085E620005CF0A8FEE9E7300002F09EFA2D
:101CB00038005CF0A1FED5E71E483CF0E3FD0021B2
:101CC0000300080098470224B9E7C0467C4300207F
:101CD0005CAD0020491B00008D1C0000386F061011
:101CE000FF7F00009C6B0610706C0610DC6D061008
:101CF000486E0610D86C0610B46F061018700610E7
:101D000070780610D4780610F87A061060760610FF
:101D10003C7906105C7B061078130000947A06105C
:101D20001A410000C0D40100B81A06107043002008
:101D300010A800205542000030B5174A8FB0136834
:101D400001331360012B08D10122144B52421A6057
:101D500000225A609A60DA601A61114A13680133EE
:101D60001360012B01D00FB030BD38220D496846F9
:101D70003DF09AFE00230C4C382023606360A36082
:101D80003DF098FE05003822383569462060A56090
:101D90003DF08AFE6560E6E7644300204C43002086
:101DA000604300201C1E061008F30020044B10B5F1
:101DB0001868002803D09968091A3DF087FE10BD05
:101DC00018A8002000230360436083607047C0466A
:101DD000F8B504004C203DF06DFE05004C220021BA
:101DE0003DF05CFE524B29002B600322200002F0E4
:101DF0003DF98E20C0003DF05DFE8E2205000021E1
:101E0000D2003DF04BFE4B4B00262B6001232B7381
:101E10008A23DB00EA18083BEA500833EE54290015
:101E20000322200002F068F9E62080003DF042FE27
:101E3000E6220500002192003DF030FE3E4B2800D6
:101E40002B60CA230A225B00C530EA50FF3051F0F4
:101E5000DDFCDF239B00EE54EB1829005E601E6161
:101E600003229B60DB60200002F046F914203DF065
:101E700021FE324B324F8660067303600500380046
:101E80005CF09EFD2F4E00283FD12F4B2900F35CC4
:101E900003222B71200002F02FF90C203DF00AFEE6
:101EA00005000C2200213DF0F9FD284B29002B6094
:101EB0000322200002F020F914203DF0FBFD050074
:101EC000142200213DF0EAFD214B29002B60032262
:101ED000200002F011F9B4203DF0ECFD0500B42221
:101EE00000213DF0DBFD1B4B290020002B6003226D
:101EF00002F002F9184D28005CF062FD174C002832
:101F00000AD1200003F082FBF8BD300002F06EF928
:101F100038005CF071FDB8E700231148236063606E
:101F2000A36023615EF05EFC28005CF065FDE8E7DD
:101F3000E8770610A0720610E875061010770610F4
:101F40007C4300205CAD0020050D0000046C0610F1
:101F5000446D06107C7706107443002018A80020FA
:101F6000AD1D001010B504000321200001F0E8FFB2
:101F7000FAE7C04630B5174A8FB0136801331360D3
:101F8000012B08D10122144B52421A6000225A60E0
:101F90009A60DA601A61114A136801331360012BE9
:101FA00001D00FB030BD38220D4968463DF07CFDB0
:101FB00000230C4C382023606360A3603DF07AFD61
:101FC00005003822383569462060A5603DF06CFD7B
:101FD0006560E6E7644300204C4300206043002036
:101FE000541E061008F3002070B5064D2C68AC4254
:101FF00006D0200024680C213DF068FDAC42F8D1E9
:1020000070BDC0466CA7002010B53AF029FA00292F
:1020100005D0FA22002392003CF0CCFC10BDFA213E
:1020200089003CF089FCF9E710B53AF019FA10BDC7
:1020300070B50400284A0023E26022610020C9B282
:102040006022E17021712100A070A0712380A36043
:10205000A382A054214A6031CA800A814A818A81C0
:102060004B808B806E2163520231605421007031AD
:10207000CA800A814A818A817E22194D4B808B80D9
:102080002800A3525CF09CFC00280FD1CC23154EF5
:102090002800E6505CF094FC002815D1D022124BA9
:1020A0002000A350D4230022E25470BD0F4802F058
:1020B0009DF828005CF0A0FCCC230A4E2800E650D6
:1020C0005CF07EFC0028E9D0094BF01802F08EF895
:1020D00028005CF091FCE1E7FF7FFF7FFF7F0000BD
:1020E0007C43002058B2002078B200205CAD002074
:1020F00004FBFFFFF0B5D6464F464646C84C0500E8
:10210000C0B520005CF05CFCC64B9A46002800D0AD
:1021100006E2504602F076FD070020005CF050FC1D
:10212000002800D018E20C203DF0C4FC7B68002B96
:1021300002DB1D2B00DCB5E1FF23002203708023AE
:102140000124E850426004810C203DF0B3FCFB68A0
:10215000002B02DB1D2B00DCA8E1FF230024037011
:10216000022303818233E85044600C203DF0A2FC3E
:102170007B69002B02DB1D2B00DC9AE1FF23002290
:102180000370042303818433E85042600C203DF047
:1021900091FCFB69002B02DB1D2B00DC8DE1FF2392
:1021A00000220370082303818433E85042600C202E
:1021B0003DF080FC7B6A002B02DB1D2B00DC80E104
:1021C000FF230022037090230124E8504260048121
:1021D0000C203DF06FFCFB6A002B02DB1D2B00DCAA
:1021E00073E1FF2300240370022303819233E8503C
:1021F00044600C203DF05EFC7B6B002B02DB1D2B52
:1022000000DC65E1FF230022037004230381943383
:10221000E85042600C203DF04DFCFB6B002B02DBD4
:102220001D2B00DC58E1FF230022037008230381EB
:102230009433E85042600C203DF03CFC7B6C002B5A
:1022400002DB1D2B00DC4BE1FF2300220370102377
:1022500003819033E85042600C203DF02BFCFB6C76
:10226000002B02DB1D2B00DC3EE1FF23002203706C
:10227000202303818433E85042600C203DF01AFC97
:102280007B6D002B02DB1D2B00DC31E1FF230022E4
:102290000370402303816833E85042600C203DF016
:1022A00009FCFB6D002B02DB1D2B00DC24E1FF236E
:1022B00000220370802303812C33E85042600C20FD
:1022C0003DF0F8FB7B6E002B02DB1D2B00DC17E1E1
:1022D000FF230022037080235B000381503BE85002
:1022E00042600C203DF0E6FBFB6E002B02DB1D2B59
:1022F00000DC09E1FF230022037080239B0003819F
:102300004D3BFF3BE85042600C203DF0D3FB7B6F20
:10231000002B02DB1D2B00DCFAE0FF230022037000
:102320008023DB000381B8234260E8500C203DF09D
:10233000C1FBFB6F002B02DB1D2B00DCECE0FF235D
:102340000022037080231B010381BC234260E850FC
:102350000C203DF0AFFB8423FB58002B02DB1D2B30
:1023600000DC97E0FF230022037080235B010381E0
:10237000C0234260E8500C203DF09CFB8C23FB58AE
:10238000002B02DB1D2B00DC88E0FF230022037002
:102390008023C4249B0142600381285148203DF0E2
:1023A0008DFB8422AA58802342608822AA58EB58C9
:1023B00082608C22AA580360C2609022AA58C82664
:1023C00002619422AA5842619822AA5882619C22F2
:1023D000AA58C261A022AA580262A422AA58426244
:1023E000A822AA588262AC22AA58C262B022AA5875
:1023F0000263B422AA584263B822AA588263BC225C
:10240000AA58C263C022AA5802642A59002442640E
:10241000C822A850C73A9146D0221206904605E03D
:102420007C4300205CAD0020AB591B591878FF2875
:102430000CD038F00BFFAB5942461B5901211878DC
:102440004B4683409362002238F0A8FE0434482CA7
:10245000EAD1942438591D280BD838F0F7FE01230F
:102460003859D0228340120693620121002238F0AD
:1024700095FE52463C4D3D4B2800D65C5CF0A0FAE0
:102480003B4C002853D13B4BE650E0BCBA46B1462A
:10249000A846F0BD012203709A4066E7012203704E
:1024A0009A4075E7012203709A4048E69C40037009
:1024B00056E6012203709A4063E6012203709A40B7
:1024C00070E6012203709A407DE69C4003708BE623
:1024D000012203709A4098E6012203709A40A5E613
:1024E000012203709A40B2E6012203709A40BFE6CF
:1024F000012203709A40CCE6012203709A40D9E68B
:10250000012203709A40E6E6012203709A40F4E645
:10251000012203709A4003E7012203709A4011E7F9
:10252000180001F063FE20005CF066FAF1E58022FD
:1025300000270021A01C520027603DF0AFFA852241
:10254000201D0021D200FF303DF0A8FA094B2800E1
:10255000E7505CF051FA96E7504601F047FE200044
:102560005CF04AFADFE5C04678430020150500001C
:102570002CA800202C050000F0B5D6464F46464654
:10258000204BC0B5050018009A460F005CF018FA01
:102590001D4B9946002827D1484602F033FB002402
:1025A0008046C826AB591B591878FF2801D038F04F
:1025B0006BFE0434482CF5D194234246D0581D2894
:1025C00001D838F061FE50465CF0FAF9002812D1CB
:1025D0003900484602F0B0FB2800FFF78BFDE0BC55
:1025E000BA46B146A846F0BD180001F0FFFD5046BE
:1025F0005CF002FAD0E7484601F0F8FD50465CF086
:10260000FBF9E5E77C4300205CAD0020F0B5040059
:10261000DE464E46574645462100E0B5102287B0BB
:10262000703160303DF040FACC2300260321E3589E
:102630005A78013AD2B291427641B74A9446320072
:1026400062440192DA79002A64D17032A55C5A7A28
:10265000002A18D080222900A0582F000289007A71
:102660009446842205000E00A25812891740D2B267
:102670001543AE43F5B26646314200D01543002FF4
:1026800065D17022A554DA7B002A00D074E05A7913
:10269000042A5FD003212940022900D127E1032920
:1026A00000D1BCE0012900D1CCE0082104270020A2
:1026B0008C469A4908700C212940082900D1CCE0A9
:1026C0000C2900D197E1042900D15EE10021050029
:1026D000934A11707022A554DA78012A00D1C6E01D
:1026E000022A00D126E16378002B04D1019A7633C7
:1026F000E2520233E252A378002B04D1019A7A33DA
:10270000E2520233E25207B0F0BCBB46B246A946E1
:10271000A046F0BD7022A15C1832A0580F000289BB
:10272000007A94468C2205000E00A25812891740A8
:10273000D2B21543AE4335006646314200D0154350
:10274000002F01D00543EDB27022A5547FE7054369
:10275000EDB296E75A78511E012901D9042AB9D160
:1027600003222A40022A00D1C0E0032A00D16DE2F0
:10277000012A67D0012298E76A4B18009A465CF05C
:102780001FF9694F002800D0B1E101239846424665
:102790002B402A4200D095E0644A16005278002A65
:1027A00000D00FE250465CF00BF9002800D0C7E1E2
:1027B0000223984642462B402A4200D1EEE0B378ED
:1027C000002B00D126E250465CF0FAF8002800D039
:1027D000C1E104231A002A402B4200D123E1F378FF
:1027E000002B00D124E250465CF0EAF8002800D02B
:1027F000BCE108231A002A402B4200D140E1337982
:10280000002B7AD03D68BD4200D1D3E17B681A7AB3
:10281000474BD55C7023E5545C33E35837E7002A17
:1028200000D0AEE101213D4A11700C222A40082A55
:1028300000D161E20C2A00D15BE2042A00D1A3E0BE
:10284000012043E7092101208C46344905270870FF
:102850000C212940082900D032E70421304A1170A8
:1028600065467022A554DA78012A00D038E7A278AC
:10287000002A04D101997A32A1520232A1525A7827
:102880000C232B40042B00D158E1082B00D183E00E
:10289000531E032B00D840E11F4B762163520323C4
:1028A0002B40012B00D13FE1022B00D140E1013A46
:1028B000032A00D883E1184A7823E2520022083B19
:1028C000E25420E7194B1E005B78002B00D069E72B
:1028D0000C203DF0EFF84346390003725CF062F9DA
:1028E0004246BB6872700133BB605BE701220A217C
:1028F00006278C4602200949DCE60C203DF0DAF878
:102900000423390003725CF04DF9BB680133BB60EE
:102910000123337176E7C046FF7F0000289A01202B
:10292000279A0120684300206CA7002064A700209C
:10293000871F06106278002A04D101997632A152CD
:102940000232A1525A780C232B40042B00D1F1E023
:10295000082B1FD0531E032B00D8D3E0C24B7A2183
:10296000635203232B40012B00D1E5E0022B00D161
:10297000D1E0013A032A00D81EE1BB4A7C23E2528F
:1029800000220C3BE254BEE605270321B74A117032
:102990003D009FE6B64BE2E7B54B7EE7B278002AF2
:1029A00000D110E704933B6802AA90469B469146EB
:1029B00002920392BB4217D10023B37003E749454B
:1029C0000FD0CB450DD05A4648465CF0DDF8434663
:1029D00042469B6801339360BB68013BBB60136850
:1029E0009946BB4500D169E159460B689B460B7A75
:1029F000022BF6D1E3E7022A0CD0032A00D075E1BE
:102A00009A4A117800290AD0032900D028E7BC4649
:102A1000654626E7954A1178002900D01DE105009A
:102A20000021117056E6F378002B00D1DBE602ABF3
:102A30009846029303933B68C1469B460492BB426F
:102A400017D10023F370CEE649450FD0CB450DD00A
:102A50005A4648465CF098F8434642469B68013324
:102A60009360BB68013BBB6013689946BB4500D1CE
:102A700030E159460B689B460B7A032BF6D1E3E70E
:102A80003379002B00D1BDE63D6802AB9846029336
:102A900003930492BD4227D0994601E0BD4217D06E
:102AA00029000B7A2D68042BF8D18945F6D0A94569
:102AB000F4D02A0048465CF067F8434642469B68DB
:102AC00001339360BB68013BBB6013689946E5E73F
:102AD000C14500D11CE1484603680C2199463CF0F1
:102AE000F5FFC145F7D13D68002333718BE6002324
:102AF00060487F603F60BB605DF074FE50465BF0F5
:102B00007BFF42E67A235C4AE252773B2B40012B63
:102B100012D0022B50D1564A30E77623564AE25261
:102B2000733B2B40012B01D10022C5E6022B46D17D
:102B30004F4AC1E6002312E700221FE70023ACE65C
:102B400000234C487F603F60BB605DF04BFE504609
:102B50005BF052FF2CE6002346487F603F60BB607D
:102B60005DF040FE50465BF047FF32E600234148EF
:102B70007F603F60BB605DF035FE50465BF03CFF20
:102B800037E63E49022A7BD10878002860D0012828
:102B900000D1B4E007320527944601200C222A40D8
:102BA000082A00D159E60C2A00D133E7042A00D0C4
:102BB0008CE5EAE600252DE680221202DEE6802280
:102BC000120279E604933B6802AA90469B4691461E
:102BD00002920392BB4216D100237370E2E549458D
:102BE0000FD0CB450DD05A4648465BF0CDFF43464B
:102BF00042469B6801339360BB68013BBB6013682E
:102C00009946BB454FD059460B689B460B7A012B22
:102C1000F7D1E4E70C203CF04DFF43463900037246
:102C20005BF0C0FFBB680133BB600123B370CAE532
:102C30000C203CF03FFF0323390003725BF0B2FF2E
:102C4000BB680133BB600123F370CCE501220B4963
:102C500008200427844600202CE5032900D097E6AD
:102C600067463D0036E5C046FF7F0000279A0120F9
:102C7000FFFF0000E91F00100080FFFF289A0120DD
:102C8000032AE5D108780028E2D001283CD00A22A6
:102C90000627944602200C222A40082A00D1DCE5AF
:102CA0000C2A83D1ACE6C14596D0484603680C2176
:102CB00099463CF00BFFC145F7D18DE7C14500D1E6
:102CC0007AE6484603680C2199463CF0FFFEC14570
:102CD000F7D171E6C14500D1B3E6484603680C213F
:102CE00099463CF0F3FEC145F7D1AAE60500094A32
:102CF00096E60125074A93E609229446ADE50A22A5
:102D000002200627944649E7092205279446C2E790
:102D10002D68E9E6279A012070B5664E0400300060
:102D20005BF04EFE644D002800D0BCE0280001F0AE
:102D300069FFCC2203260021A258D02352781B061B
:102D4000013AD2B2964249415C4A5D689446942267
:102D50008058933A8240AA43501E82417420D20385
:102D600022528022A658EB43706800226144A84397
:102D700001D00822B2568420205845681D4202D056
:102D80000089024352B28820205845681D4202D073
:102D90000089024352B28C20205845681D4202D05F
:102DA0000089024352B2702022549022A05800227F
:102DB00045681D4201D00822825E94202058456853
:102DC0001D4202D00089024312B298202058456863
:102DD0001D4202D00089024312B29C20205845684F
:102DE0001D4202D00089024312B2A020205845683B
:102DF0001D4202D00089024312B2A4202058456827
:102E00001D4202D00089024312B2A8202058456812
:102E10001D4202D00089024312B2AC2020584568FE
:102E20001D4202D00089024312B2B02020584568EA
:102E30001D4202D00089024312B2B42020584568D6
:102E40001D4202D00089024312B2B82020584568C2
:102E50001D4202D00089024312B2BC2020584568AE
:102E60001D4202D00089024312B2C020205845689A
:102E70001D4202D00089024312B2C4202058456886
:102E80001D4202D003891A4312B27223E252002279
:102E90000433E1520233E1520233E1520233E15290
:102EA0000233E25270BD280001F0A0F930005BF05F
:102EB000A3FD3BE77C4300205CAD0020FF7F0000CA
:102EC000010010B57031043036F09CFE10BDC046D4
:102ED00070B5094D28005BF073FD084C002803D144
:102EE000200001F0ABF970BD200001F07FF928004F
:102EF0005BF082FDF4E7C0467C4300205CAD00201F
:102F0000F8B505000C00162918D8874A8B00D3584D
:102F10009F46D426835D122B10D00421FFF72CFB93
:102F2000AB5D122B0AD0814F814E38005BF048FD1B
:102F3000002800D0E9E0300001F080F9D423EC54FF
:102F4000F8BDCC23C3585B78042B74D07222802345
:102F5000A95A5B000B43AB52F0E772228023815ADF
:102F60001B010B438352E9E772228023815ADB0065
:102F70000B438352E2E7D426835D112BDED003217D
:102F8000FFF7FAFAAB5D112BCDD1D7E7D426835DDD
:102F9000102BD3D00221FFF7EFFAAB5D102BC2D17B
:102FA000CCE7D426835D0F2BC8D00121FFF7E4FACC
:102FB000AB5D0F2BB7D1C1E7D423C35C0E2BBDD0C3
:102FC0005A4F38005BF0FCFC594E002800D0A3E0BB
:102FD0000121584AB35C4B40B354D423EB5C0E2B15
:102FE000A3D1ABE7D423C35C0D2BA7D0CC23012105
:102FF000C2584E4FD37B4E4E4B40D37395E7CC23F4
:103000000122C3585A71D423C35C072B00D08AE72E
:1030100094E7CC230022C3585A71D423C35C062BF7
:1030200000D080E78AE7CC23C3585A78042A8DD190
:10303000DB7A002B8AD072228023A95A9B010B4392
:10304000AB527BE772228023815A5B010B43835290
:1030500074E7CC230222C358DA70D423C35C032B59
:1030600000D060E76AE7CC230122C358DA70D4238A
:10307000C35C022B00D056E760E7CC230022C35884
:10308000DA70D423C35C012B00D04CE756E7002054
:1030900002F02EFA52E7CC230322C3585A71D423EC
:1030A000C35C0B2B00D03EE748E7D423C35C0A2B5C
:1030B00000D143E7CC230121C2581C4F537A1C4E48
:1030C0004B40537231E7D423C35C092B00D135E761
:1030D000CC230121C258154FD379154E4B40D371E3
:1030E00023E7CC230222C3585A71D423C35C082B94
:1030F00000D018E722E7CC230422C3585A71D42306
:10310000C35C0C2B00D00EE718E7300001F06EF81E
:1031100038005BF071FC0EE7300001F067F8380012
:103120005BF06AFC54E7C0468C1E06107C4300200E
:103130005CAD002009100000F8B5DE4657464E464B
:103140004546CC23E0B5C3585B7B002B00D0CEE0D6
:10315000D033C358597B9C689D69002909D07226D9
:103160001A8AB3461700865B3740BC46974200D1A7
:10317000DDE02922995C5C6A5D6B002908D072262B
:10318000B346865B9A8D37001740BA4200D1E7E01C
:103190004522995C1C6C9A6C1D6D002907D0722722
:1031A00096B2B446C65B3240944500D1F2E061224B
:1031B000995CDC6D5A6EDD6E002907D0722796B2DD
:1031C000B446C65B3240944500D1FDE07D22995C57
:1031D0000B329C6F9E58002909D0083A9D5A0E3A2E
:1031E000875A94463A002A40954200D1FEE0942244
:1031F0009C580532995C0B329E58002909D0083A38
:103200009D5A2A3A875A94463A002A40954200D15C
:1032100001E1B0229C580532995C0B329E5800297E
:1032200009D0083A9D5A463A875A94463A002A40AD
:10323000954200D101E1CC229C580532995C0B32B9
:103240009E58002909D0083A9D5A623A875A9446F6
:103250003A002A40954200D101E1E8229C5805320B
:10326000995C0B329E58002909D0083A9D5A7E3A43
:10327000875A94463A002A40954200D101E18222C1
:1032800052009C580A22FF32995C0B329E5800294A
:1032900009D0083A9D5A9A3A875A94463A002A40E9
:1032A000954200D1FFE0902252009C582622FF3226
:1032B000995C0B329E58002909D0083A9D5AB63ABB
:1032C000875A94463A002A40954200D1FDE09E225A
:1032D00052009C584222FF32995C0B329D580029C3
:1032E0000BD1D42300220021C254FFF709FEF0BC09
:1032F000BB46B246A946A046F8BD7227C65B083A4F
:103300009A5A330013409A42EBD1E3B299467023A4
:103310009846C35C9C461C40A145E2D17424045BE2
:10332000ABB22540AB42DCD19643C6532CE0E2B2AF
:10333000914670229046825C14404C4500D018E7BC
:10334000AFB2B9467427C75B3D40A94500D010E72E
:1033500063469E435B46C6524346A243C254C4E7FB
:10336000E7B2B9467027B846C75DBC463C40A145A8
:1033700000D00DE77427C75BACB23D40AC4200D033
:1033800006E75B469643C6524A4663469343424627
:103390008354AAE7E2B2924670229146825C90463C
:1033A0001440A24500D002E77424045BAAB2254071
:1033B000AA4200D0FBE663469E43C65352464346AC
:1033C00093434A46835490E7E2B292467022914674
:1033D000825C90461440A24500D0F7E67424045B5A
:1033E000AAB22540AA4200D0F0E6E4E7E2B2924653
:1033F00070229146825C90461440A24500D0F6E6C9
:103400007424045BB2B22640B24200D0EFE66346B9
:10341000AF43C752D2E7E2B2924670229146825C35
:1034200090461440A24500D0F3E67424045BB2B287
:103430002640B24200D0ECE6E9E7E2B292467022C2
:103440009146825C90461440A24500D0F3E6742475
:10345000045BB2B22640B24200D0ECE6D7E7E2B25B
:10346000924670229146825C90461440A24500D05C
:10347000F3E67424045BB2B22640B24200D0ECE61C
:10348000C5E7E2B2924670229146825C90461440B3
:10349000A24500D0F3E67424045BB2B22640B242E7
:1034A00000D0ECE6B3E7E2B2924670229146825C2D
:1034B00090461440A24500D0F5E67424045BB2B2F5
:1034C0002640B24200D0EEE6A1E7E2B29246702278
:1034D0009146825C90461440A24500D0F7E67424E1
:1034E000045BB2B22640B24200D0F0E68FE7C0469D
:1034F000CC23C35813205B78042B02D8014A5B000D
:10350000985A70477C1F0610702330B5C15C613B30
:1035100002000B400A2B55D832499B00CB589F46DE
:103520000323314883707223D45A703B61000B40EF
:103530000121A5080D402B4365080D40AD002B432C
:10354000E5080D40ED002B4325090D402D012B43CF
:1035500065090D406D012B43A5090D40AD012B43BD
:10356000E5090D40ED012B43250A0D402D022B43AB
:10357000650A0D406D022B43A50A0D40AD022B4399
:10358000E50A0D40ED022B43250B0D40640B2D0386
:1035900021402B4349030B430188890B89030B43CB
:1035A00003807623D35A1B0AC3707823D35A1B0A8D
:1035B00003717A23D35A1B0A43717C23D35A1B0A03
:1035C000837130BD0823ACE70023AAE70423A8E7F2
:1035D0000623A6E70723A4E70523A2E70223A0E723
:1035E00001239EE7E81E061014380020702370B5F2
:1035F000C25C613B010013400A2B51D8304A9B004A
:10360000D3589F4603232F4801228370722302253B
:10361000CC5A6600A308354013402B43650815407B
:10362000AD002B43E5081540ED002B43250915405F
:103630002D012B43650915406D012B43A50915404C
:10364000AD012B43E5091540ED012B43250A15403B
:103650002D022B43650A15406D022B43A50A154028
:10366000AD022B43E50A1540ED022B43250B154017
:10367000640B2D0322402B43520313430380762314
:10368000CB5A1B0AC3707823CB5A1B0A03717A23C7
:10369000CB5A1B0A43717C23CB5A1B0A837170BD22
:1036A0000823B0E70023AEE70423ACE70623AAE72C
:1036B0000723A8E70523A6E70223A4E70123A2E73F
:1036C000141F0610CC370020702370B5C55C023380
:1036D000C15A6A08713BAE081A401E40B60052003B
:1036E00032431E002E40ED081D40ED0032432A43B8
:1036F0004D0A1D402D012A430D0A1D406D012A432C
:103700008D0A1D40AD012A43CD0A1D40ED012A431B
:103710001D00040026480D4082700A092D011A4040
:103720002A434D091D406D002A430D0B1D40AD007D
:103730002A434D081D406D012A438D081D40AD01EF
:103740002A43CD081D40ED012A43C270194D76224F
:10375000AC46A25A6244C2807822A55A164A551B2A
:1037600005817A25655B654445817C25655B521B37
:1037700082812278002A08D0FE334A0611D5FF2222
:10378000037109060AD5427170BD8A091A40C90938
:1037900052420B4002715A42D2B2F4E77F23E25CFC
:1037A000F1E7813BE35CFF2203710906EBD4F5E707
:1037B000B83700200080FFFFFF7F0000F0B5DE4635
:1037C00057464E4645467023E0B5C25C613B83B028
:1037D00013400A2B00D992E05C4A9B00D3589F46C5
:1037E00003237222855A713AAE08164036013343DC
:1037F0001600A909114089462E40760133436E0810
:103800001640B6013343EE081640514CF6013343DF
:1038100063716B0913402E0916405B0033434E461B
:103820000F27E909B60011403343CE003343A67990
:10383000BE433343A371CC23C358DB7A002B00D1A2
:1038400073E06B0B1340AE0A164098466B0A1340A8
:10385000EF0AB4462E0B2D0A1740164001932A405A
:103860003C4DFF01AA462D7836020135EBB200939C
:103870003F231D4053461D704546019B2D015B01B2
:103880002B436546AD012B433B4352023343134365
:10389000009AE588920213430F222A401343E380E3
:1038A0007623C35A1B0A63707823C35A1B0AA3707A
:1038B0007A23C35A1B0AE3707C23C35A1B0A237161
:1038C0000378002B2BD07E23C35C23727F23C15C43
:1038D00080232000617220495B420A7823301A431A
:1038E0000A700A79134308220B713CF0DDF82000BE
:1038F00003B0F0BCBB46B246A946A046F0BD0F23BC
:103900006FE706236DE707236BE7052369E70223CB
:1039100067E7002365E7042363E7012361E74B467C
:1039200049425B422372C9B2D2E72B0A1340AE0A66
:10393000164098466B0A1340EF0AB4462E0B6D0BE7
:103940001740164001932A408AE7C046401F0610E0
:10395000D4370020229A01208443002070B5C04C47
:10396000050020005BF02CF8002844D1BD4B20223C
:1039700000211C0018003CF091F821220021631E58
:1039800099544F32AA5C01311800114200D080E1F5
:103990000223134200D06BE1530700D54EE112071A
:1039A00000D539E172230122EB5A1A4200D020E1FE
:1039B0009A0700D50AE15A0700D5F4E01A0700D5A6
:1039C000DEE0DA0600D5C8E09A0600D5B2E05A0675
:1039D00000D59CE01A0600D586E0DA0500D570E037
:1039E0009A055BD45A0546D41A0531D4DA041CD49E
:1039F0009B0407D470BD9C4800F0F8FB20005AF0EF
:103A0000FBFFB3E7F322984BD2009B5CE72B00D877
:103A10000AE202221833DBB2027000220C2B01D81A
:103A2000924AD25C2123C254E4E7F2218E4AC900B3
:103A3000525CE72A00D8ECE102211832D2B20170C0
:103A400000210C2A01D88949895C21228154CFE7C1
:103A5000F121854AC900525CE72A00D8CEE1022153
:103A60001832D2B2017000210C2A01D87F49895C3A
:103A700021228154BAE7F0217B4AC900525CE72A2F
:103A800000D8B0E102211832D2B2017000210C2A14
:103A900001D87649895C21228154A5E7EF21724A39
:103AA000C900525CE72A00D892E102211832D2B252
:103AB000017000210C2A01D86C49895C21228154B3
:103AC00090E7EE21684AC900525CE72A00D874E109
:103AD00002211832D2B2017000210C2A01D86349A8
:103AE000895C212281547BE7ED215F4AC900525C49
:103AF000E72A00D856E102211832D2B20170002123
:103B00000C2A01D85949895C2122815465E7EC21AE
:103B1000554AC900525CE72A00D838E10221183220
:103B2000D2B2017000210C2A01D85049895C2122AF
:103B300081544FE7EB214C4AC900525CE72A00D878
:103B40001AE102211832D2B2017000210C2A01D8E8
:103B50004649895C2122815439E7EA21424AC90059
:103B6000525CE72A00D8FCE002211832D2B2017080
:103B700000210C2A01D83D49895C2122815423E788
:103B8000E921394AC900525CE72A00D8DEE0022167
:103B90001832D2B2017000210C2A01D83349895C55
:103BA000212281540DE7E8212F4AC900525CE72AFF
:103BB00000D8C0E002211832D2B2017000210C2AD4
:103BC00001D82A49895C21228154F7E6E721264A57
:103BD000C900525CE72A00D8A2E002211832D2B212
:103BE000017000210C2A01D82049895C21228154CE
:103BF000E1E6E6241C49E400095DE72900D885E0F8
:103C000018310132C9B2027000220C2901D8174ABA
:103C1000525C21214254CBE6E522134BD2009B5C3F
:103C2000E72B68D902221833DBB2027000220C2B7A
:103C300001D80E4AD25C2123C254B3E6E4210A4BD8
:103C4000C9005B5CE72B4BD902211833DBB2017052
:103C500000210C2B01D80549C95C2123C1549EE6E3
:103C60007C430020953700205CAD00206C1F0610BF
:103C7000E3247349E400095DE72926D91831C9B264
:103C8000037000230C2901D86E4B5B5C2121435447
:103C900082E6E2246A48E400005DE7280CD9183087
:103CA0000131C0B2197000230C2801D8654B1B5C90
:103CB0002121654843546BE60726C408304019703B
:103CC00081401C191800617062E607260123CC08A8
:103CD000314003708B40041961780B4363705BE6DD
:103CE00007260121DC0833400170994004196378EC
:103CF0001943617053E607240122D908234002705A
:103D00009A4041184B781A434A704BE60725CC0875
:103D1000294002708A40041961780A43627047E6BC
:103D200007250121D4082A400170914004196278C6
:103D3000114361703FE607250121D4082A40017034
:103D40009140041962781143617037E6072501211B
:103D5000D4082A40017091400419627811436170BF
:103D60002FE607250121D4082A400170914004194B
:103D700062781143617027E607250121D4082A40A3
:103D80000170914004196278114361701FE60725A4
:103D90000121D4082A40017091400419627811432E
:103DA000617017E607250121D4082A40017091406F
:103DB00004196278114361700FE607250121D408C8
:103DC0002A4001709140041962781143617007E63E
:103DD00007250121D4082A40017091400419627816
:103DE00011436170FEE507250121D4082A400170C6
:103DF00091400419627811436170F5E507250121AE
:103E0000D4082A400170914004196278114361700E
:103E1000ECE507250121D4082A40017091400419DE
:103E2000627811436170E3E507240122D908234039
:103E300002709A4041184B781A434A70DAE5C0463E
:103E40005CAD00206C1F061094370020CC2310B509
:103E5000C3585B78032B0CD006D8002B0FD0012B56
:103E60000AD1FFF7C3FB10BD042B05D1FFF7A6FC59
:103E7000F9E7FFF773FDF6E7FFF746FBF3E7FFF718
:103E800023FCF0E730B5174A8FB013680133136095
:103E9000012B08D10122144B52421A6000225A60B1
:103EA0009A60DA601A61114A136801331360012BBA
:103EB00001D00FB030BD38220D4968463BF0F4FD0B
:103EC00000230C4C382023606360A3603BF0F2FDBC
:103ED00005003822383569462060A5603BF0E4FDD6
:103EE0006560E6E7644300204C4300206043002007
:103EF0008C1F061008F30020044B10B5186800282A
:103F000003D09968091A3BF0E1FD10BD18A8002004
:103F1000F8B54568046807000E00AC4206D0236877
:103F20001A79B24203D00434A542F8D1F8BD18681A
:103F3000043403685B6998477D68A542EFD1F5E7D3
:103F4000F8B54568046807000E00AC4206D0236847
:103F50001A79B24203D00434A542F8D1F8BD1868EA
:103F6000043403681B6998477D68A542EFD1F5E7E3
:103F7000F8B54546DE4657464E460368E0B5466806
:103F80009346374A9846F31A05008A469B10934297
:103F900062D0B04556D01A009A18934247D853467B
:103FA00041465C1A002300279946002A4CD15B4603
:103FB0001B683B51002C2ADC534604343C19F61A8A
:103FC000002E0DDC4346A419002B19D14B462F605F
:103FD0006C60AB60F0BCBB46B246A946A046F8BDDB
:103FE0002000320051463BF05FFD4346A419002BF0
:103FF000ECD005E02000320051463BF055FDA419FD
:104000004346A968C91A40463BF060FDDEE722003E
:10401000414638005DF048F8534604343C19F61A1E
:10402000002EE7DC4346A968A419C91AEBE75346FA
:1040300042469C1A0B4B994648463BF03BFD070015
:104040008144B4E70122A7E780239B059A4200D36D
:10405000034A93009946EFE703485AF0EBFEC04647
:10406000FFFFFF1FFCFFFF7FC41F0610F0B50B68AA
:10407000050083B008009B680C00170098470028D3
:1040800005D1236820005B68984703B0F0BD082085
:104090003BF010FD060023680190DB682000984784
:1040A0006968AB6834603771994219D040C1696062
:1040B0000E4E30005AF084FC0D4D002804D1210032
:1040C000280001F0C7FAE0E700230A482B606B6084
:1040D000AB602B615CF086FB30005AF08DFCEEE7A4
:1040E000280001AAFFF744FFE2E7C046744300201E
:1040F00018A80020F93E0010F0B50B68050083B049
:1041000008009B680C0017009847002805D1236819
:1041100020005B68984703B0F0BD08203BF0CAFC64
:10412000060023680190DB68200098476968AB6847
:1041300034603771994202D040C16960EBE72800D2
:1041400001AAFFF715FFE6E770B505000C1E01D0C8
:104150002C7070BD04203BF0ADFC0600024B0360E8
:1041600013F02CFB6E60F3E78069061010B5406811
:1041700003685B68984710BD30B5174A8FB0136865
:1041800001331360012B08D10122144B52421A60F3
:1041900000225A609A60DA601A61114A136801338A
:1041A0001360012B01D00FB030BD38220D49684695
:1041B0003BF07AFC00230C4C382023606360A36042
:1041C0003BF078FC05003822383569462060A56050
:1041D0003BF06AFC6560E6E7644300204C43002046
:1041E00060430020E01F061008F3002070B5002592
:1041F00004000D4B057045608560C5500B4B9E2239
:104200000021C0183BF04AFC094B0A48E55051F028
:1042100051F8094BE01837F0C5FB9B23DB00E01891
:104220000CF0E2FD200070BD603100006431000040
:104230000432000048430020583100009B23DB007B
:104240009C4610B560440CF01FFD10BDF8B5CE467D
:10425000474680B5BFF35B8FFB4B0400C61833782D
:10426000BFF35B8F002B00D1CAE3F84BC258EFF3CA
:10427000108172B61368002BFCD0BFF35F8FF34B35
:10428000E718F34B7960180098465AF099FBF14D06
:10429000002800D0B8E3F04BF04AE3181979A95090
:1042A00059790832A9509979ED4AA950D97908323B
:1042B000A9505A7A197A12020A431204E9491214CF
:1042C0006A50DA7A997A12020A43D6211204121439
:1042D00009016A50197BE44AA950597BE34AA95461
:1042E000DA7B997B12020A43197C090411435A7C38
:1042F00012060A43D72109016A50DA7C997C12021E
:104300000A43197D090411435A7D12060A43D8490C
:104310006A50DA7D997D12020A43197E090411431D
:104320005A7E12060A43D82109016A50DA7E997E24
:1043300012020A43197F090411435A7F12060A43E5
:10434000CC496A509A7FDB7F1B021343CA4AA218EA
:10435000127812041A43C94BE3181B781B06134347
:10436000D9221201AB50C64BE3181A78C54BE3189B
:104370001B781B021343C44AA218127812041A4372
:10438000C24BE3181B781B061343C14AAB50C14B09
:10439000E3181A78C04BE3181B781B021343BF4A7B
:1043A000A218127812041A43BD4BE3181B781B069F
:1043B0001343DA221201AB50BA4BE3181A78BA4B06
:1043C000E3181B781B021343B84AA2181278120490
:1043D0001A43B74BE3181B781B061343B54AAB507F
:1043E000B54BE3181A78B54BE3181B781B0213433F
:1043F000B34AA218127812041A43B24BE3181B787E
:104400001B061343DB221201AB50AF4BE3181A78A3
:10441000AE4BE3181B781B021343AD4AA218127867
:1044200012041A43AB4BE3181B781B061343AA4A2A
:10443000AB50AA4BE3181A78A94BE3181B781B0260
:104440001343A84AA218127812041A43A64BE31881
:104450001B781B061343DC221201AB50A34BE3185D
:104460001A78A34BE3181B781B021343A14AA21826
:10447000127812041A43A04BE3181B781B0613434F
:104480009E4AAB509E4BE3181A789E4BE3181B785C
:104490001B0213439C4AA218127812041A439B4B26
:1044A000E3181B781B061343DD221201AB50984B17
:1044B000E3181A78974BE3181B781B021343964AAC
:1044C000A218127812041A43944BE3181B781B06A7
:1044D0001343934AAB50934BE3181A78924BE3186B
:1044E0001B781B021343914AA218127812041A4334
:1044F0008F4BE3181B781B061343DF221201AB50CE
:104500008C4BE3181A788C4BE3181B781B0213436F
:104510008A4AA218127812041A43894BE3181B78AE
:104520001B061343874AAB50874BE3181A78874B17
:10453000E3181B781B021343854AA2181278120451
:104540001A43844BE3181B781B061343DE22120127
:10455000AB50814BE3181A78804BE3181B781B0291
:1045600013437F4AA218127812041A437D4BE318B2
:104570001B781B0613437C4AAB507C4BE3181A781C
:104580007B4BE3181B781B0213437A4AA21812785C
:1045900012041A43784BE3181B781B061343E022DE
:1045A0001201AB50754BE3181A78754BE3181B7862
:1045B0001B021343C7229201A218127812041A4355
:1045C000704BE3181B781B0613436F4AAB506F4BBD
:1045D000E3181A786E4BE3181B781B0213436D4ADD
:1045E000A218127812041A436B4BE3181B781B06AF
:1045F0001343E1221201AB50684BE3181A78684B61
:10460000E3181B781B021343664AA218127812049F
:104610001A43654BE3181B781B061343634AAB50E0
:10462000634BE3181A78634BE3181B781B021343A0
:10463000614AA218127812041A43604BE3181B78DF
:104640001B061343E222BBE0543100005831000046
:104650007C4300205CAD002064310000380D000078
:10466000480D0000580D0000680D00006D0D0000A1
:10467000780D0000880D00008431000085310000B5
:104680008631000087310000883100008931000048
:10469000980D00008A3100008B3100008C31000041
:1046A0008D3100008E3100008F310000903100000C
:1046B00091310000A80D00009231000093310000FC
:1046C00094310000953100009631000097310000D0
:1046D0009831000099310000B80D00009A310000B7
:1046E0009B3100009C3100009D3100009E31000094
:1046F0009F310000A0310000A1310000C80D000072
:10470000A2310000A3310000A4310000A531000057
:10471000A6310000A7310000A8310000A931000037
:10472000D80D0000B2310000B3310000B4310000F8
:10473000B5310000B6310000B7310000B8310000DB
:10474000B9310000F80D0000AA310000AB310000C3
:10475000AC310000AD310000AE310000AF310000DF
:10476000B0310000B1310000E80D0000BA310000A6
:10477000BB310000BC310000BD310000BE31000083
:10478000BF310000C1310000080E0000C23100003E
:10479000C3310000C4310000C5310000C631000043
:1047A000C7310000C8310000C9310000180E0000F8
:1047B000CA310000CB310000CC310000CD31000007
:1047C0001201AB50A14BE3181A78A14BE3181B78E8
:1047D0001B0213439F4AA218127812041A439E4BDD
:1047E000E3181B781B0613439C4AAB509C4BE31801
:1047F0001A789C4BE3181B781B0213439A4AA218A1
:10480000127812041A43994BE3181B781B061343C2
:10481000E3221201AB50964BE3181A78954BE3183C
:104820001B781B021343944AA218127812041A43ED
:10483000924BE3181B781B061343914AAB50914BE4
:10484000E3181A78904BE3181B781B0213438F4A26
:10485000A218127812041A438D4BE3181B781B061A
:104860001343E4221201AB508A4BE3181A788A4BA7
:10487000E3181B781B021343884AA218127812040B
:104880001A43874BE3181B781B061343854AAB502A
:10489000854BE3181A78854BE3181B781B021343EA
:1048A000834AA218127812041A43824BE3181B7829
:1048B0001B061343E5221201AB507F4BE3181A7815
:1048C0007E4BE3181B781B0213437D4AA218127813
:1048D00012041A437B4BE3181B781B0613437A4AD6
:1048E000AB507A4BE3181A78794BE3181B781B020C
:1048F0001343784AA218127812041A43764BE3182D
:104900001B781B061343E6221201AB50734BE318CE
:104910001A78734BE3181B781B021343714AA218D1
:10492000127812041A43704BE3181B781B061343CA
:104930006E4AAB506E4BE3181A786E4BE3181B7837
:104940001B0213436C4AA218127812041A436B4BD1
:10495000E3181B781B061343E8221201AB50684B87
:10496000E3181A78674BE3181B781B021343C8221D
:104970009201A218127812041A43634BE3181B78B1
:104980001B061343614AAB50614BE3181A78614B25
:10499000E3181B781B0213435F4AA2181278120413
:1049A0001A435E4BE3181B781B061343E7221201E0
:1049B000AB505B4BE3181A785A4BE3181B781B0279
:1049C0001343594AA218127812041A43574BE3189A
:1049D0001B781B061343564AAB509B23DB00E018A1
:1049E0000CF052F90023BFF35B8F3370BFF35B8F82
:1049F000504AA1587A68BFF35F8F0B6082F310882A
:104A0000C0BCB946B046F8BD002399464A462B7053
:104A10006B60AB60484B0021EA50484B9E32E8186F
:104A20003BF03CF84A46464B4648EA5050F042FCC0
:104A3000404BE81836F0B6FF9B23DB00E8180CF07B
:104A4000D3F9404659F0D8FF25E4C046CE310000E6
:104A5000CF310000D0310000D1310000280E00001D
:104A6000D2310000D3310000D4310000D531000034
:104A7000D6310000D7310000D8310000D931000014
:104A8000380E0000DA310000DB310000DC310000BC
:104A9000DD310000DE310000DF310000E0310000D8
:104AA000E1310000480E0000E2310000E331000077
:104AB000E4310000E5310000E6310000E73100009C
:104AC000E8310000E9310000580E0000EA31000032
:104AD000EB310000EC310000ED310000EE31000060
:104AE000EF310000F0310000F1310000680E0000ED
:104AF000FA310000FB310000FC310000FD31000004
:104B0000FE310000FF31000001320000880E00007D
:104B1000F2310000F3310000F4310000F531000003
:104B2000F6310000F7310000F8310000F9310000E3
:104B3000780E000058310000603100006431000040
:104B40000432000048430020F0B5C6460F0000B50F
:104B500082B006003D0001A850F050FB3C009E359D
:104B6000210001A8013450F04DFBAC42F8D101A85E
:104B700050F060FB174B0400F158EFF3108372B64E
:104B80000A68002AFCD0BFF35F8F124AB518124A98
:104B90006B609046B258A2420FD0104B9E22F01884
:104BA00039003AF081FF43460122F450BFF35B8F96
:104BB0000B4BF254BFF35B8F6B68064AB258BFF3DE
:104BC0005F8F0021116083F3108802B080BCB8466B
:104BD000F0BDC04658310000603100006431000073
:104BE0005431000010B5054850F0C8FBFA220020EF
:104BF0000349D20038F0E0F910BDC0464843002018
:104C000000200420F0B54E464546DE465746E0B546
:104C10003C4D0400465983B0002E07D0300003B04D
:104C2000F0BCBB46B246A946A046F0BD98203AF07B
:104C3000DFFEA223DB006051E5586133FF33982289
:104C4000E118023D06003AF02FFF022DE6D86B0076
:104C50005B192D4A5B01E3189A18126893462B4A98
:104C60009A18126892462A4A9A1812689146294A56
:104C70009A1812689046284A9A1812680092274A91
:104C80009A181768264A9A181568264A9A181468B6
:104C9000254A9A181068254A9A181168244A9A18C1
:104CA00012680192234A94465A4663441B681D2A9F
:104CB00000D8726252461D2A00D8F2624A461D2A66
:104CC00000D8726342461D2A00D8F263009A1D2A5A
:104CD00000D872641D2F00D8F7641D2D00D87565AB
:104CE0001D2C00D8F4651D2800D870601D2900D83F
:104CF000F160019A1D2A00D872611D2B00D98DE741
:104D0000F3618BE704320000F42F0000FC2F000059
:104D1000043000000C300000143000001C30000093
:104D2000243000002C300000343000003C30000003
:104D3000443000004C300000F0B54546DE46574692
:104D40004E46E0B54B1E04000D0085B0032B06D97E
:104D500005B0F0BCBB46B246A946A046F0BDCE2386
:104D6000404EDB0098228059E1183AF09DFEAA1EC1
:104D7000022A73D853009B185B013B4AE3189A1828
:104D800012689346394A9A1812689246384A9A1815
:104D900012689146374A9A1812689046364A9A180D
:104DA00012680092354A9A181768354A9A1810689E
:104DB000344A9A1812680192334A9A181268029279
:104DC000324A9A181168324A9A1812680392314A84
:104DD00094465A4663441B681D2A01D8A65972623C
:104DE00052461D2A02D81F4EA659F2624A461D2A73
:104DF00002D81C4EA659726342461D2A02D8194E8B
:104E0000A659F263009A1D2A02D8164EA65972645A
:104E10001D2F02D8134EA659F7641D2802D8114E33
:104E2000A6597065019E1D2E02D80E482058C665F1
:104E3000029E1D2E02D80B48205846601D2902D81C
:104E400008482058C160039A1D2A02D805496158B4
:104E50004A611D2B02D8034AA258D361A223DB006A
:104E6000E55075E704320000F42F0000FC2F00002D
:104E7000043000000C300000143000001C30000032
:104E8000243000002C300000343000003C300000A2
:104E9000443000004C300000F422030010B5D20072
:104EA000017099182C30024A3AF0FEFD10BDC04640
:104EB000AC0400000078704741607047406870475C
:104EC00081607047806870470C307047F8B5F84EC5
:104ED0000500300059F074FDF64C002800D03FE288
:104EE00000232B706B70AB70EB70F34BE358FF2B10
:104EF00000D9FF232B71D4231B01E358FF2B00D9CA
:104F0000FF236B71ED4BE358FF2B00D9FF23AB71EF
:104F1000D5231B01E358FF2B00D9FF238022EB711F
:104F2000E74B5202E358934200DBE64B9AB22B72F6
:104F3000D623120A6A7280221B01E358520293425E
:104F400000DBE04B9AB2120AEA72D722AB72DE4B58
:104F50001201E358A25C2B73DC4B2800E35CAA73BC
:104F6000D7221201A21851786B73E9739178D27825
:104F700029746A74D64A2B00A25C1E33AA74D44AE0
:104F8000A2185178E9749178D27829756A75D82277
:104F90001201A25CAA75D8221201A2185178E975F3
:104FA0009178D27829766A76CA4AA25CAA76C94AEA
:104FB000A2185178E9769178D27829776A77D92240
:104FC0001201A25CAA77D9221201A2185178E977BE
:104FD0009178D2789970DA70BF4AA25C1A71BE4A91
:104FE000A218517859719178D2789971DA71DA22D0
:104FF0001201A25C1A72DA221201A21851785972B7
:105000009178D2789972DA72B44AA25C1A73B34A70
:10501000A218517859739178D2789973DA73DB2298
:105020001201A25C10331A70DB221201A21851780F
:1050300059709178D2789970DA70A94AA25C1A7185
:10504000A74AA218517859719178D2789971DA717A
:10505000DC221201A25C1A72DC221201A218517821
:1050600059729178D2789972DA729E4AA25C1A7358
:105070009C4AA218517859739178D2789973DA734F
:10508000DD221201A25C10331A70DD221201A21877
:10509000517859709178D2789970DA70924AA25CFE
:1050A0001A71914AA218517859719178D2789971F0
:1050B000DA71DF221201A25C08331A72DF221201B8
:1050C000A218517859729178D2789972DA72874A17
:1050D000A25C1A73854AA218517859739178D278D4
:1050E0009973DA73DE221201A25C1A70DE221201B9
:1050F000A218517859709178D2789970DA707C4AF8
:105100000433A25C1A707A4AA218517859709178C7
:10511000D2789970DA70E0221201A25C1A73E02250
:105120001201A218517859739178D2789973DA7371
:10513000704AA25C1A746F4AA21851785974917817
:10514000D2789974DA74E1221201A25C1A75E12214
:105150001201A218517859759178D2789975DA753B
:10516000654A1833A25C1A70634AA21851785970C4
:105170009178D2789970DA70E2221201A25C1A71E9
:10518000E2221201A218517859719178D27899715E
:10519000DA715A4AA25C1A72584AA21851785972A6
:1051A0009178D2789972DA72E3221201A25C1A73B2
:1051B000E3221201A218517859739178D278997329
:1051C000DA734F4A1033A25C1A704D4AA218517814
:1051D00059709178D2789970DA70E4221201A25C49
:1051E0001A71E4221201A218517859719178D2787B
:1051F0009971DA71434AA25C1A72424AA218517834
:1052000059729178D2789972DA72E5221201A25C11
:105210001A73E5221201A218517859739178D27845
:105220009973DA73384BE25C8223EA54364BE21806
:105230002B005178823359709178D2789970DA7056
:10524000E6231B01E25C8623EA54E6231B01E218F5
:105250002B005178863359709178D2789970DA7032
:105260002A4BE25C8A23EA54284BE2182B0051783F
:105270008A3359709178D2789970DA70E8231B01DB
:10528000E25C9623EA54E8231B01E2182B005178D4
:10529000963359709178D2789970DA701C4BE25C31
:1052A0009A23EA541A4BE2182B00517832E0C04698
:1052B0007C4300205CAD0020380D0000480D00004C
:1052C000580D0000FFFF0000680D00006D0D00008C
:1052D000780D0000880D0000980D0000A80D00005A
:1052E000B80D0000C80D0000D80D0000F80D00003A
:1052F000E80D0000080E0000180E0000280E000047
:10530000380E0000480E0000580E0000680E000025
:10531000880E00009A3359709178D2789970DA70BB
:10532000E7231B01E25C8E23EA54E7231B01E2180A
:105330002B0051788E3359709178D2789970DA7049
:10534000164BE25C9223EA54144B9C462B006444B7
:10535000627892335A70A2789A70E278DA70F8BD67
:1053600000270F4B9E22E7500E4B0021E0182770BC
:105370006760A7603AF092FB0B4B0C48E7504FF088
:1053800099FF0B4BE01836F00DFB9B23DB00E01878
:105390000BF02AFD300059F02FFBA1E5780E00003C
:1053A00060310000643100000432000048430020F6
:1053B0005831000070B5154D280059F001FB144C10
:1053C000002804D120001349FFF7BEFB70BD002662
:1053D000114B9E22E650114B0021E01826706660AA
:1053E000A6603AF05BFB0E4B0E48E6504FF062FFB2
:1053F0000D4BE01836F0D6FA9B23DB00E0180BF0DB
:10540000F3FC280059F0F8FADCE7C0467C430020A2
:105410005CAD00209C66002060310000643100001B
:1054200004320000484300205831000030B5174ACC
:105430008FB0136801331360012B08D10122144B84
:1054400052421A6000225A609A60DA601A61114A68
:10545000136801331360012B01D00FB030BD382227
:105460000D4968463AF020FB00230C4C382023609D
:105470006360A3603AF01EFB0500382238356946A8
:105480002060A5603AF010FB6560E6E76443002009
:105490004C430020604300201820061008F3002031
:1054A000802080037047C0460148024BC01A7047F5
:1054B000548D0C1000000010024B0348C01A034B1F
:1054C000C01870470000042000200420449A010006
:1054D0000148024BC01A704700000420449A012082
:1054E00000B58BB068465BF0D7FC07980BB000BDE9
:1054F00010B504000120064940423DF073FD054B04
:105500000022002100201C6237F056FD30BFFDE76D
:10551000FFFFFF0F0080054010B537F09BFD00280E
:1055200011D00A4B186A0A4B984208D0094B98428E
:1055300005D0094BC3185A4253415B421840002220
:10554000024B1A6210BD0020FCE7C04600800540F7
:10555000CD66D543A58477E71F1BC808044B10B55B
:105560001868002803D09968091A3AF0AFFA10BDFC
:1055700018A80020F0B5D6464F464646C0B5C478B8
:1055800082B0002C05D18368DD799A792D0215430C
:1055900005D102B0E0BCBA46B146A846F0BD9A7843
:1055A000DE78037836029846144B16431800994665
:1055B00059F006FA124F002815D13C687B689C42CE
:1055C000E7D0330A9946F3B29A464A4601CC41469F
:1055D0000368009201950022DE6A5346B0477A685C
:1055E000A242F2D1D5E707483C607C60BC603C61D8
:1055F0005BF0F8F8484659F0FFF9DEE77443002005
:1056000018A800205D5500100174704770B502683D
:105610004368040084B09A4216D06A4611000B4BCE
:1056200061CB61C101251B6801200B60237C084907
:10563000137095703BF082F801203BF095F80A203A
:10564000002136F037FE657404B070BD502006109E
:10565000004C0400F8B5CE46474643688268040013
:105660000D0080B5934205D002C34360C0BCB9466B
:10567000B046F8BD026822499E1A9046B2108A428E
:105680003AD043452BD01300D3189A421FD800229A
:1056900000279146002B27D1BD51002E09DC43463F
:1056A0000436BE19002B1CD14B4627606660A360F0
:1056B000DCE73200414638005BF0F6FC4346A16867
:1056C0000436BE19C91A40463AF000FAECE70D4B11
:1056D000994648463AF0EEF907008144DCE7012399
:1056E000D2E7A168C91AEEE780229205934200D35F
:1056F000034B9B009946ECE7034859F09BFBC046DF
:10570000FFFFFF1FFCFFFF7FC41F061010B5437C87
:10571000002B00D110BD0120002140423BF084F855
:10572000F8E7C046F0B5DE46574645464E469B462E
:105730008023E0B5C5B08A46904600215B0004AAEC
:1057400003903BF04FFC00283CD102AB5B8904AADC
:10575000D51802AB1B7AD618B54233D9737801221B
:105760000B2B03D13378F278F6187378042B48D1D9
:105770007379032B59D0A91B571E89B2FFB2002A97
:10578000EAD03278330014000020201880B29B1831
:10579000814206D80DE01A78101880B29B18814219
:1057A00007D95A780B2A0AD0042AF4D1DA78002AC9
:1057B000F1D1013FFFB2FF2F01D01A78E5E736188B
:1057C000B542CBD81B4E300059F0FAF81A4B994627
:1057D00000281DD14B464A465B6816689E420CD095
:1057E0005A4601CE039903680092DD69524643464A
:1057F000A8474B465B68B342F2D1514603983CF050
:105800004DFA45B0F0BCBB46B246A946A046F0BD35
:1058100000234A46094813605360936013615AF0AD
:10582000E1FF300059F0E8F8D4E7054BB2781A7080
:10583000C8E7C0467443002018A800205D5500103A
:10584000259A012070B5104C0600200059F0B8F8D8
:105850000E4D00280CD12C686B689C4207D001CCFF
:10586000310003681B6A98476B68A342F7D170BD8B
:10587000002307482B606B60AB602B615AF0B2FFCE
:10588000200059F0B9F8E6E77443002018A800207A
:105890005D550010F0B5D6464F464646C0B5194C8A
:1058A000070082B02000884691469A4659F088F851
:1058B000154E002819D1346873689C420BD05246AB
:1058C00001CC3900036800925D6A42464B46A84706
:1058D0007568A542F3D1414638003CF0DFF902B0CB
:1058E000E0BCBA46B146A846F0BD00230748336085
:1058F0007360B36033615AF075FF200059F07CF893
:10590000D9E7C0467443002018A800205D55001058
:10591000F0B5574645464E46DE46E0B583B098465C
:105920000CAB1B8805000E0017009A46002B06D111
:1059300003B0F0BCBB46B246A946A046F0BD154C2C
:10594000200059F03DF8144B9B46002815D15B46CA
:105950001C685B689C42EBD0524601CC290003686E
:105960000192424600929B6A320099463B00C8472A
:105970005B465B68A342EFD1DAE700235A4607484B
:1059800013605360936013615AF02CFF200059F0AC
:1059900033F8DCE77443002018A800205D550010A0
:1059A00070B588B06C460500A2201B020CA91343F9
:1059B00040C963800B4B09881B78FF302080A3808F
:1059C000E18002AC1822002120003AF067F8064B73
:1059D000200006936B462570049305963AF02CFF41
:1059E00008B070BD259A012075550010F0B5D64657
:1059F0004F464646C0B5DC4D82B004006846AF6AEB
:105A00004FF0FCFBD94E2900684601354FF0FAFBF8
:105A1000B542F8D1002301AD019302AE29006846DA
:105A200001354FF0EFFBAE42F8D168464FF002FC73
:105A30000026874201D101F007F88023CC4D68464B
:105A4000EF584FF0DBFBCB4B9846290068460135F9
:105A50004FF0D8FB4545F8D10023019302AB98469F
:105A600001AD2900684601354FF0CCFBA845F8D1BF
:105A700068464FF0DFFB874201D100F059FEBE4D72
:105A800068462F6F4FF0BAFBBC4B9846290068461A
:105A900001354FF0B7FB4545F8D10023019302AB28
:105AA000984601AD2900684601354FF0ABFBA8458B
:105AB000F8D168464FF0BEFB874201D101F0EEF805
:105AC000AF4B68461B6801AD98464FF097FB00232B
:105AD00002AF01932900684601354FF093FBAF42B6
