:020000041000EA
:1000000000B5324B212058609868022188439860DF
:10001000D860186158612E4B002199600221596106
:100020000121F02299502B49196001219960352056
:1000300000F044F80222904214D00621196600F024
:1000400034F8196E01211966002018661A6600F04E
:100050002CF8196E196E196E052000F02FF8012189
:100060000842F9D1002199601B49196000215960AB
:100070001A491B48016001219960EB211966A021F2
:10008000196600F012F800219960164914480160C1
:100090000121996001BC002800D000471248134993
:1000A000086003C880F30888084703B5996A0420EC
:1000B0000142FBD001200142F8D103BD02B5186610
:1000C0001866FFF7F2FF186E186E02BD00000240BE
:1000D000000000180000070000035F00212200005C
:1000E000F4000018222000A00001001008ED00E03C
:1000F00000000000000000000000000074B24E7A12
:1001000000200420F7010010C3010010C5010010F9
:10011000C1010010C1010010C1010010C101001097
:10012000C1010010C1010010C1010010C701001081
:10013000C1010010C1010010C9010010CB01001065
:10014000CD010010CD010010CD010010CD01001037
:10015000CD010010CD010010CD010010CD01001027
:10016000CD010010CD010010CD010010CD01001017
:10017000CD010010CD010010CD010010CD01001007
:10018000CD010010CD010010CD010010CD010010F7
:10019000CD010010CD010010CD010010CD010010E7
:1001A000CD010010CD010010CD010010CD010010D7
:1001B000CD010010CD010010CD010010CD010010C7
:1001C00000BE00BE00BE00BE00BE00BEEFF3058054
:1001D000103800BEF2EB8871D42D0B10402E0B109E
:1001E0003402001090A31AE700201F49086006C8D7
:1001F00081F3088810471D48006800282FD10DA4FE
:100200000ECC002902D000F012F8F9E71849194A7B
:10021000002000E001C19142FCD1174988471749ED
:1002200088471749884700BEFDE701C901C29A42C5
:10023000FBD37047402E0B10C0000020543F00201D
:10024000E06C0B100000042000000420E06C0B1098
:10025000001004200010042000000000704709482E
:1002600034F0C8FE0047000008ED00E0000000D0B8
:10027000603F002014620120FD370310310300109D
:10028000313903105756000006005250ABB360538B
:1002900040D5051006005250861C030250D50510AB
:1002A000060052505422A29D5CD505100500525004
:1002B000DE65F468E06C0B10F8B5C04606480749E7
:1002C000091A8B10C90FC91810B5491003D0044B77
:1002D000002B00D0984710BD543F0020543F002011
:1002E00000000000054B10B5002B03D00449054861
:1002F00000E000BFFFF7E2FF10BDC04600000000B5
:10030000B03F0120C878051010B539F0B3F91820B6
:1003100035F038FF040000F033FD200000F03AFD16
:10032000200000F003FE10BD10B556F061F900008A
:10033000882010B5400035F025FF040000F090F84B
:10034000200000F013FB044839F068F9200000F0A9
:10035000DFF8002010BDC04609030010044B10B5A3
:100360001868002803D09968091A35F017FF10BDE6
:1003700088870020F0B5C646722300B59046CB5A58
:10038000028A04000D009A420AD0428A9A4207D09B
:10039000214B1A685B688261C36180BCB846F0BDBE
:1003A000A669E76933003B4312D01C4B5A6A974257
:1003B000F3D89B6AB3421FD37223228AEB5A9A4224
:1003C0001DD0628A9A42E8D1154803F057FFE4E74E
:1003D00032F0FEFB0027134E802336184F411B06D8
:1003E0009F4202D30126104F76420C4BA661E76173
:1003F0005A6A9742D1D8DCE79742DDD1CDE7404633
:1004000043425841094B40421840094B9C466044C6
:1004100003F034FFC1E7C046C0D2051000400540DC
:10042000E1E437F700093D00FFFFFF7FD81DA2A3DD
:10043000CD66D54370B5084D280054F0A5FA074C99
:10044000002801D1200070BD200002F075FD2800B9
:1004500054F0B6FAF6E7C04600430020CC8C0020EA
:10046000F8B500220023040005210CC000F0D4FDE3
:100470000023E022A3502200E03253609360F02278
:10048000A3541F4B1F4F1868596823001E4DF033AB
:1004900010329860D960A5509861D961380054F045
:1004A00073FA1A4E00281CD1D82035F06BFE0500D7
:1004B000052100F0B1FD3000290003F0B7FB380042
:1004C00054F062FA002813D1D82035F05BFE050005
:1004D000052100F0A1FD3000290003F0ABFB200056
:1004E000F8BD300002F028FD380054F069FADBE76F
:1004F000300002F021FD380054F062FAE4E7C04613
:10050000C0D20510004300200C020C01CC8C00204E
:10051000F0B5DE4657464E464546E0B58BB0040082
:10052000FFF788FF03F084FB0700FFF783FF03F06A
:1005300083FB8246FFF77EFF03F076FBAA4B8146E2
:100540000093AA4BAA4D0193F0239846A94BAA4EBB
:100550000693AA4BA0440593A94B9B46A94B09932C
:10056000E0239C46A44463460493534670330893A7
:1005700070239C46BC4463460793280054F004FA59
:10058000002838D1300002F009FD4B46002B3ED048
:10059000009854F0F9F9002800D0BBE0019802F06F
:1005A0008BFC380001F07AFAF023E35C002B00D0DA
:1005B000AAE07233FB5A002B00D0AFE043469A68A2
:1005C000DB68110002920393194300D1D7E08E49F2
:1005D000039B486A9C468342CFD88B6A029A934217
:1005E00001D28445C9D0F02301222800E25454F0FE
:1005F000CBF90028C6D0300002F09EFC280054F051
:10060000DFF9300002F0CAFC4B46002BC0D1059840
:1006100054F0BAF9002800D096E0584603F03CFFA9
:100620002368029363689A4600F0F2FC8A4500D979
:1006300085E000D17FE0380001F030FA380001F0A9
:10064000F3FA0021049802F009FB380001F028FCBD
:10065000F023E35C002B68D17233FB5A002B00D0EF
:10066000A4E043469A68DB681100029203931943A1
:1006700000D1A2E06449039B486A9C46834208D8A3
:100680008B6A029A934201D2844502D0F023012260
:10069000E254380000F0AEFF0021049802F0F6FAB0
:1006A00010220799089835F067FD380002F074FAB7
:1006B0008246380001F0D0FD010050464FF0AAFFFD
:1006C000280054F061F9002852D1300003F0B6FA46
:1006D000280054F059F9002843D1300003F0B6FA4D
:1006E0004FF084FF0121049802F0D0FA012000218C
:1006F000404239F02DFC00F08BFC6422002380186E
:1007000059412060616038E7012239004046FFF717
:1007100031FE32E7009854F053F93FE74146069B1B
:100720001A685B688A60CB6027E700223900404680
:10073000FFF720FEADE7029B834200D87BE7322023
:10074000002132F06FF918E75B464A4609981A60B3
:100750005A609A601A6155F053FF059854F030F9C9
:100760005BE7300002F0E8FB280054F029F9B4E719
:10077000300002F0E1FB280054F022F9A5E732F046
:1007800027FA3222002312184B4180210292039350
:1007900009068B4204D301221C4B5242029203935E
:1007A0000299039A43469960DA6010E74146069B36
:1007B0001A685B688A60CB606BE732F009FA322214
:1007C000002312184B4180210292039309068B42A9
:1007D00004D301220D4B5242029203930299039AD1
:1007E00043469960DA6045E7F442002080870020A4
:1007F00000430020C0D20510CC8C0020F84200201D
:10080000888700205D03001000400540FFFFFF7F48
:10081000F0B5C64600B5040003F044FD4E4B9842C7
:100820005ED04E4B984200D180E0002801D00020DD
:1008300057E04B4F380054F0A7F84A4B9846002831
:1008400059D1404603F0F4F90500380054F09CF803
:10085000002849D1404603F0EFF90600E0342800B3
:1008600001F01CF90021200002F0F8F9280000F046
:10087000C1FE0021200002F009FA300029001022F8
:100880007030703135F078FC380054F07DF8002875
:1008900038D14246344BD35C012B17D0032B38D0D0
:1008A0007222AA5A023BDBB2D10541D4012B01D9F5
:1008B000930515D4530747D4130747D4D30747D418
:1008C000930747D41206B2D506200AE07222AA5A2C
:1008D000D10536D59205AAD57022AA5C134225D13E
:1008E000012080BCB846F0BD404602F025FB380030
:1008F00054F066F8AEE7180002F01EFB380054F022
:100900005FF89EE7404602F017FB380054F058F8B5
:10091000BFE77223EB5ADA0500D488E79B0500D4C1
:1009200085E77023EB5CDB0700D480E70220D8E783
:100930009105BFD57021695CC907F7D4012BCFD8C9
:10094000B8E7500A1840CCE70320CAE70720C8E7F9
:100950000420C6E70520C4E7A58477E7E1E437F77C
:1009600000430020CC8C00208E180000F0B5D64645
:100970004F464646C0B5C64F050084B0380054F017
:1009800003F8C44E002800D043E1C34BF35C002BB6
:1009900000D016E1C14BF35C002B00D011E1380010
:1009A00053F0F2FF002800D051E1300003F040F98D
:1009B000804600F093FB42F07DFA602035F0E2FBC8
:1009C00081466022002135F0D1FB4A46B44B2C0011
:1009D00013604B46B34AE0349A81DA811A825A8214
:1009E00049460022200002F0E7F90C2035F0CAFB4E
:1009F00081460C22002135F0B9FB4A46AA4B4946F4
:100A000013602000002202F01DFA082035F0BAFB26
:100A1000002399464360A54B01000360002220009B
:100A200002F010FA242035F0ADFB8246242200218A
:100A300035F09CFB52469E4B51461360200000222D
:100A400002F000FA0C2035F09DFB4B464360037228
:100A5000984B010003600022200002F0F3F90C2003
:100A600035F090FB4B4643600372934B01000360EB
:100A70000022200002F0E6F9242035F083FB8146B5
:100A80002422002135F072FB4A468C4B4946136004
:100A90002000002202F0D6F90C2035F073FB8146CD
:100AA0000C22002135F062FB4A46854B4946136013
:100AB0002000002202F0C6F9202035F063FB8146B9
:100AC0002022002135F052FB4A467E4B49461360F6
:100AD0002000002202F0B6F9542035F053FB814685
:100AE0005422002135F042FB4A46774B49461360B9
:100AF0002000002202F0A6F9302035F043FB8146A9
:100B00003022002135F032FB4A46704B49461360D3
:100B10002000002202F096F9242035F033FB8146B4
:100B20002422002135F022FB4A46694B49461360D6
:100B30002000002202F086F90C2035F023FB8146CC
:100B40000C22002135F012FB4A46624B49461360E5
:100B50002000012202F076F9142035F013FB8146C3
:100B60001422002135F002FB4A465B4B49461360D4
:100B70002000002202F066F9282035F003FB8146B0
:100B80002822002135F0F2FA4A46544B2000136027
:100B90004946002202F056F92800FFF739FE0128E5
:100BA0003ED01ADC002806D1CC234246D3585C78CC
:100BB00020004FF00BFD04B0E0BCBA46B146A84699
:100BC000F0BD474803AB02AA01A930F077FD002829
:100BD00044D14448424932F0AFFE02284FD0C31EF0
:100BE000042BE8D84246CC23D1584A7803284DD06C
:100BF0000124042806D00024052803D0C31F58422E
:100C00004341DC1C9442D3D040464C7001F014F8B0
:100C1000CEE7300002F090F9380053F0D1FEB4E690
:100C2000380053F0B1FE002822D10121300002F03B
:100C3000EDFFFF204FF0CAFC2B4C200053F0A4FE28
:100C4000002811D10021294802F024F9B3E730002F
:100C500002F072F9380053F0B3FEA6E6039A029947
:100C6000019830F0EFFC9AE6200053F0A9FEE9E786
:100C7000300002F061F9380053F0A2FED5E71C48BD
:100C800034F0B8F900210300080098470224B9E7BE
:100C900000430020CC8C0020751700007D18000058
:100CA000D8BA0510FF7F000040B7051014B8051032
:100CB00080B90510E8B905107CB8051054BB0510C3
:100CC000B8BB0510E4C3051048C405101CC50510C9
:100CD00080C50510D4C10510B0C40510E4C50510C9
:100CE000C0D40100C8780510F4420020808700209D
:100CF0005542000030B5174A8FB0136801331360B6
:100D0000012B08D10122144B52421A6000225A6072
:100D10009A60DA601A61114A136801331360012B7B
:100D200001D00FB030BD38220D49684635F024FAA5
:100D300000230C4C382023606360A36035F022FA56
:100D400005003822383569462060A56035F014FA70
:100D50006560E6E7EC420020D4420020E842002033
:100D6000207A0510D8BA0020044B10B51868002866
:100D700003D09968091A35F011FA10BD8887002050
:100D8000002200230260436000238360C36003618C
:100D90007047C0460830F8B504004C2035F0F2F931
:100DA00005004C22002135F0E1F9534B29002B605E
:100DB0000322200002F000F88E20C00035F0E2F996
:100DC0008E2205000021D20035F0D0F94B4B0026D1
:100DD0002B6001232B738A23DB00EA18083BEA50BF
:100DE0000833EE5429000322200002F02BF8E620FD
:100DF000800035F0C7F9E62205000021920035F0A9
:100E0000B5F93F4B28002B60CA230A225B00C5308E
:100E1000EA50FF3049F062F8DF239B00EE54EB18F4
:100E200029005E601E6103229B60DB60200002F0EF
:100E300009F8102035F0A6F9324B334F866006735F
:100E400003600500380053F09FFD304E00283FD16D
:100E50002F4B2900F35C03222B71200001F0F2FFDD
:100E60000C2035F08FF905000C22002135F07EF9B9
:100E7000284B29002B600322200001F0E3FF1420FF
:100E800035F080F905001422002135F06FF9224B6E
:100E900029002B600322200001F0D4FFB42035F09C
:100EA00071F90500B422002135F060F91B4B2900CF
:100EB00020002B60032201F0C5FF194D280053F0DC
:100EC00063FD184C00280AD1200003F065FAF8BD34
:100ED000300002F031F8380053F072FDB8E700231B
:100EE000114823606360A360236155F089FB2800EB
:100EF00053F066FDE8E7C0465CC305101CBE051054
:100F00005CC1051084C2051000430020CC8C002079
:100F1000FD0C0000A8B70510E8B80510F0C20510D8
:100F2000F842002088870020690D0010F8B5474678
:100F3000CE46030080B530CB804699466426002714
:100F400000F066F88D4206D943461C685D6800F0E3
:100F50005FF88D42F8D88D4201D18442F4D8032144
:100F6000484601F093FE00F053F88019794143465A
:100F700004000D001C605D60E2E7C04630B5174A12
:100F80008FB0136801331360012B08D10122144B79
:100F900052421A6000225A609A60DA601A61114A5D
:100FA000136801331360012B01D00FB030BD38221C
:100FB0000D49684635F0E0F800230C4C38202360DA
:100FC0006360A36035F0DEF80500382238356946E5
:100FD0002060A56035F0D0F86560E6E7EC420020BF
:100FE000D4420020E8420020587A0510D8BA0020E8
:100FF00010B531F0EDFD002905D0FA220023920052
:1010000034F090F810BDFA21890034F04DF8F9E77A
:1010100010B531F0DDFD10BD70B50400284A002385
:10102000E26022610020C9B26022E17021712100DA
:10103000A070A0712380A360A382A054214A6031D4
:10104000CA800A814A818A814B808B806E216352DB
:101050000231605421007031CA800A814A818A813C
:101060007E22194D4B808B802800A35253F08CFCBC
:1010700000280FD1CC23154E2800E65053F084FCF5
:10108000002815D1D022124B2000A350D4230022D7
:10109000E25470BD0F4801F04FFF280053F090FC60
:1010A000CC230A4E2800E65053F06EFC0028E9D00D
:1010B000094BF01801F040FF280053F081FCE1E7F4
:1010C000FF7FFF7FFF7F000000430020C4910020CE
:1010D000E4910020CC8C002008FBFFFFF0B5D64641
:1010E0004F464646C84C0500C0B5200053F04CFCA6
:1010F000C64B9A46002800D006E2504602F03CFC5F
:101100000700200053F040FC002800D018E20C201B
:1011100035F038F87B68002B02DB1D2B00DCB5E1D5
:10112000FF230022037080230124E85042600481E1
:101130000C2035F027F8FB68002B02DB1D2B00DCB0
:10114000A8E1FF2300240370022303818233E850C7
:1011500044600C2035F016F87B69002B02DB1D2B58
:1011600000DC9AE1FF23002203700423038184330F
:10117000E85042600C2035F005F8FB69002B02DBDB
:101180001D2B00DC8DE1FF23002203700823038167
:101190008433E85042600C2034F0F4FF7B6A002B6B
:1011A00002DB1D2B00DC80E1FF2300220370902373
:1011B0000124E850426004810C2034F0E3FFFB6A14
:1011C000002B02DB1D2B00DC73E1FF2300240370E6
:1011D000022303819233E85044600C2034F0D2FFA4
:1011E0007B6B002B02DB1D2B00DC65E1FF23002263
:1011F0000370042303819433E85042600C2034F0E0
:10120000C1FFFB6B002B02DB1D2B00DC58E1FF2331
:1012100000220370082303819433E85042600C20BD
:1012200034F0B0FF7B6C002B02DB1D2B00DC4BE1AC
:10123000FF2300220370102303819033E8504260A3
:101240000C2034F09FFFFB6C002B02DB1D2B00DC1D
:101250003EE1FF2300220370202303818433E85002
:1012600042600C2034F08EFF7B6D002B02DB1D2BC7
:1012700000DC31E1FF230022037040230381683347
:10128000E85042600C2034F07DFFFB6D002B02DB48
:101290001D2B00DC24E1FF23002203708023038147
:1012A0002C33E85042600C2034F06CFF7B6E002B36
:1012B00002DB1D2B00DC17E1FF23002203708023DB
:1012C0005B000381503BE85042600C2034F05AFF31
:1012D000FB6E002B02DB1D2B00DC09E1FF2300224B
:1012E000037080239B0003814D3BFF3BE85042602D
:1012F0000C2034F047FF7B6F002B02DB1D2B00DC42
:10130000FAE0FF23002203708023DB000381B8236F
:101310004260E8500C2034F035FFFB6F002B02DBFD
:101320001D2B00DCECE0FF230022037080231B0157
:101330000381BC234260E8500C2034F023FF842357
:10134000FB58002B02DB1D2B00DC97E0FF23002263
:10135000037080235B010381C0234260E8500C20AE
:1013600034F010FF8C23FB58002B02DB1D2B00DC1C
:1013700088E0FF23002203708023C4249B01426085
:1013800003812851482034F001FF8422AA58802389
:1013900042608822AA58EB5882608C22AA580360C7
:1013A000C2609022AA58C82602619422AA584261BB
:1013B0009822AA5882619C22AA58C261A022AA58E7
:1013C0000262A422AA584262A822AA588262AC22CF
:1013D000AA58C262B022AA580263B422AA58426331
:1013E000B822AA588263BC22AA58C263C022AA5853
:1013F00002642A5900244264C822A850C73A914680
:10140000D0221206904605E000430020CC8C00203C
:10141000AB591B591878FF280CD030F0CFFAAB59D4
:1014200042461B59012118784B46834093620022A3
:1014300030F06CFA0434482CEAD1942438591D2831
:101440000BD830F0BBFA01233859D0228340120662
:1014500093620121002230F059FA52463C4D3D4B37
:101460002800D65C53F090FA3B4C002853D13B4BFC
:10147000E650E0BCBA46B146A846F0BD0122037072
:101480009A4066E7012203709A4075E701220370D3
:101490009A4048E69C40037056E6012203709A4049
:1014A00063E6012203709A4070E6012203709A40BD
:1014B0007DE69C4003708BE6012203709A4098E61B
:1014C000012203709A40A5E6012203709A40B2E619
:1014D000012203709A40BFE6012203709A40CCE6D5
:1014E000012203709A40D9E6012203709A40E6E691
:1014F000012203709A40F4E6012203709A4003E748
:10150000012203709A4011E7180001F015FD200038
:1015100053F056FAF1E5802200270021A01C52006A
:10152000276034F023FE8522201D0021D200FF30E9
:1015300034F01CFE094B2800E75053F041FA96E7BF
:10154000504601F0F9FC200053F03AFADFE5C046BE
:10155000FC420020110500009C8700202C050000A3
:10156000F0B5D6464F464646204BC0B5050018009C
:101570009A460F0053F008FA1D4B9946002827D1D0
:10158000484602F0F9F900248046C826AB591B5999
:101590001878FF2801D030F02FFA0434482CF5D108
:1015A00094234246D0581D2801D830F025FA5046E1
:1015B00053F0EAF9002812D13900484602F076FAD1
:1015C0002800FFF78BFDE0BCBA46B146A846F0BD47
:1015D000180001F0B1FC504653F0F2F9D0E748464C
:1015E00001F0AAFC504653F0EBF9E5E70043002078
:1015F000CC8C0020F0B50400C646210010227031CA
:1016000000B5603034F0B8FDCC23E158CB79002B25
:101610005FD17033E35C4A7A002A16D080221D0025
:10162000A0580432A25806891289007A1540A846AB
:1016300005001F00D2B21543AB43374246D14246A4
:10164000002A00D003437022A354487904285CD0B8
:1016500003221A40022A00D15CE1032A00D1CEE025
:10166000012A00D119E1042708260022BB4D2A7067
:101670000C252B40082B00D119E10C2B00D14EE199
:10168000042B00D1CDE0B64B002018707023E2543B
:10169000CB7B002B46D005231340012B00D186E1E4
:1016A00009231340012B00D147E10A231340022BE9
:1016B00000D193E106231340022B00D191E1042BCA
:1016C00000D0E7E00320A74B1870E3E01343DBB240
:1016D000B5E77023E05C18330600E2580433E358A2
:1016E000157A1B8917891E40DAB22B00B446060012
:1016F00013439E433300384200D013436246002A0E
:1017000000D02B437022A35485E74878421E012A5B
:1017100020D91A0004281DD07023E254CB7B002B63
:1017200000D088E0CB78012B45D0022B1FD0637806
:10173000002B04D176228C4BA3520232A352A37801
:10174000002B04D17A22884BA3520232A35280BCD0
:10175000B846F0BD03201840022800D1D9E0032884
:1017600000D14DE1012800D197E001207BE76378AB
:10177000002B00D1B9E00C231340042B00D1BEE0B4
:10178000083B59424B417849DB038C467A2163443C
:10179000635203231340012B00D1B8E0023B5A42AD
:1017A0005341714ADB03944663447C22A352702365
:1017B0000022E254CBE7A378002B00D181E00C2378
:1017C0001340042B00D186E0083B59424B41664947
:1017D000DB038C4676216344635203231340012BC1
:1017E00000D180E0023B5A4253415F4ADB039446FA
:1017F00063447822A35270230022E254A7E7002812
:1018000000D0B9E00125554805700C200340082B95
:1018100000D120E10C2B02D0042B00D1F6E00122F4
:1018200031E703224E4B1A7070233A00E254CB7B0F
:10183000002B00D176E705231340052B00D019E1DA
:101840004A4B1B78032B00D1CEE0FE231A4009231C
:101850001340092B00D0B8E0454B1B78012B00D179
:10186000C8E0F7231A400A2313400A2B69D1414BE1
:101870001B78042B00D1C0E0FD231A40062313403F
:10188000062B00D018E7374B1B78022B00D1AEE0B7
:10189000FB231A407023E25444E701222F4D052711
:1018A0002A700C2509262B40082B00D0E5E60420E1
:1018B0002B4B18707023E654CB7B002B47D13200A2
:1018C00030E77A21284B6352023163520C231340D4
:1018D000042B00D078E700237621635203231340C2
:1018E000012B00D07EE7002383E776211E4B635255
:1018F000023163520C231340042B00D040E7002335
:101900007A21635203231340012B00D046E70023C2
:101910004BE7012006270A260222104DA7E60228DF
:101920003CD0032800D0AEE60D4B1878002800D13B
:10193000AAE60328BED13A00EEE60D48037009334B
:101940001340082B3BD104200A4B187096E705235F
:101950001340012B7BD0320079E7C046F5610120AE
:10196000F4610120F6610120FF7F0000F861012091
:10197000F9610120F7610120424D022851D12A78F6
:10198000002A3FD0012A6ED00527092601220C200B
:101990000340082B8BD00C2B00D071E63A4B187803
:1019A000002800D170E6032884D03A00B4E6374816
:1019B000037009201040012850D00A231340022B45
:1019C00000D05BE73248037058E7012B3CD0082B6E
:1019D00000D048E704202F4B187044E72C4A1370BE
:1019E00002222D48037055E7F8331A402FE79A4337
:1019F000D2B24FE79A43D2B235E7F3331A403DE70C
:101A00000120204D04270826002230E61E4B1A70C4
:101A100070230522E254CB7B002B00D182E6052205
:101A20000EE70328EED12A78002AEBD0012A1ED037
:101A300006270A2602220C200340082B00D136E795
:101A40000C2B00D01CE66FE7124803700BE70F4A1F
:101A500013703200FBE60926012228E70D480370C7
:101A600009331340ABE7022206270A268FE7052732
:101A70000926E0E7042B03D10320044B1870E6E6A7
:101A8000160066E7F5610120F4610120F86101208C
:101A9000F7610120F9610120F661012070B55E4E09
:101AA0000400300052F070FF5C4D002800D0ABE025
:101AB000280001F061FF9422D0238158933A8A4094
:101AC0001B065D68AA43511E8A417421D2036252EB
:101AD0008022A058EB4341680022A94301D008228C
:101AE0008256842161584868184202D009890A4305
:101AF00052B2882161584868184202D009890A43C5
:101B000052B28C2161584868184202D009890A43B0
:101B100052B2702162549022A158002248681842A3
:101B200001D008228A5E942161584868184202D088
:101B300009890A4312B2982161584868184202D0B4
:101B400009890A4312B29C2161584868184202D0A0
:101B500009890A4312B2A02161584868184202D08C
:101B600009890A4312B2A42161584868184202D078
:101B700009890A4312B2A82161584868184202D064
:101B800009890A4312B2AC2161584868184202D050
:101B900009890A4312B2B02161584868184202D03C
:101BA00009890A4312B2B42161584868184202D028
:101BB00009890A4312B2B82161584868184202D014
:101BC00009890A4312B2BC2161584868184202D000
:101BD00009890A4312B2C02161584868184202D0EC
:101BE00009890A4312B2C42161584868184202D0D8
:101BF0000B891A4312B27223E2527622084BA35287
:101C0000084AE367A26770BD280001F095F930002B
:101C100052F0D6FE4CE7C04600430020CC8C00209A
:101C2000FF7F0000FF7FFF7F010010B5703104309F
:101C30002EF07CFF10BDC04670B5094D280052F053
:101C4000A3FE084C002803D1200001F09DF970BDCF
:101C5000200001F071F9280052F0B2FEF4E7C0460E
:101C600000430020CC8C0020F8B505000C0016299C
:101C700018D8874A8B00D3589F46D426835D122BF1
:101C800010D00421FFF76CFCAB5D122B0AD0814F02
:101C9000814E380052F078FE002800D0E9E0300094
:101CA00001F072F9D423EC54F8BDCC23C3585B780F
:101CB000042B74D072228023A95A5B000B43AB52D1
:101CC000F0E772228023815A1B010B438352E9E71C
:101CD00072228023815ADB000B438352E2E7D42631
:101CE000835D112BDED00321FFF73AFCAB5D112B96
:101CF000CDD1D7E7D426835D102BD3D00221FFF7B7
:101D00002FFCAB5D102BC2D1CCE7D426835D0F2B0B
:101D1000C8D00121FFF724FCAB5D0F2BB7D1C1E781
:101D2000D423C35C0E2BBDD05A4F380052F02CFE8A
:101D3000594E002800D0A3E00121584AB35C4B4023
:101D4000B354D423EB5C0E2BA3D1ABE7D423C35CF9
:101D50000D2BA7D0CC230121C2584E4FD37B4E4E22
:101D60004B40D37395E7CC230122C3585A71D42337
:101D7000C35C072B00D08AE794E7CC230022C3582A
:101D80005A71D423C35C062B00D080E78AE7CC23AA
:101D9000C3585A78042A8DD1DB7A002B8AD072225C
:101DA0008023A95A9B010B43AB527BE7722280230D
:101DB000815A5B010B43835274E7CC230222C35840
:101DC000DA70D423C35C032B00D060E76AE7CC232E
:101DD0000122C358DA70D423C35C022B00D056E72B
:101DE00060E7CC230022C358DA70D423C35C012BF4
:101DF00000D04CE756E7002002F040FA52E7CC232F
:101E00000322C3585A71D423C35C0B2B00D03EE786
:101E100048E7D423C35C0A2B00D143E7CC2301213C
:101E2000C2581C4F537A1C4E4B40537231E7D42397
:101E3000C35C092B00D135E7CC230121C258154FD3
:101E4000D379154E4B40D37123E7CC230222C358DC
:101E50005A71D423C35C082B00D018E722E7CC23A7
:101E60000422C3585A71D423C35C0C2B00D00EE754
:101E700018E7300001F060F8380052F0A1FD0EE7DD
:101E8000300001F059F8380052F09AFD54E7C0468E
:101E9000907A051000430020CC8C0020FD0F00003C
:101EA000F8B5DE4657464E464546CC23E0B5C35806
:101EB0005B7B002B00D0CEE0D033C358597B9C68AD
:101EC0009D69002909D072261A8AB3461700865BDD
:101ED0003740BC46974200D1DDE02922995C5C6A1C
:101EE0005D6B002908D07226B346865B9A8D370059
:101EF0001740BA4200D1E7E04522995C1C6C9A6C0D
:101F00001D6D002907D0722796B2B446C65B3240D9
:101F1000944500D1F2E06122995CDC6D5A6EDD6E71
:101F2000002907D0722796B2B446C65B324094456A
:101F300000D1FDE07D22995C0B329C6F9E580029F8
:101F400009D0083A9D5A0E3A875A94463A002A40D8
:101F5000954200D1FEE094229C580532995C0B32E8
:101F60009E58002909D0083A9D5A2A3A875A944621
:101F70003A002A40954200D101E1B0229C58053236
:101F8000995C0B329E58002909D0083A9D5A463A6E
:101F9000875A94463A002A40954200D101E1CC226A
:101FA0009C580532995C0B329E58002909D0083A9A
:101FB0009D5A623A875A94463A002A40954200D187
:101FC00001E1E8229C580532995C0B329E580029A9
:101FD00009D0083A9D5A7E3A875A94463A002A40D8
:101FE000954200D101E1822252009C580A22FF3220
:101FF000995C0B329E58002909D0083A9D5A9A3AAA
:10200000875A94463A002A40954200D1FFE0902238
:1020100052009C582622FF32995C0B329E580029B0
:1020200009D0083A9D5AB63A875A94463A002A404F
:10203000954200D1FDE09E2252009C584222FF3280
:10204000995C0B329D5800290BD1D423002200212A
:10205000C254FFF709FEF0BCBB46B246A946A046F3
:10206000F8BD7227C65B083A9A5A330013409A4269
:10207000EBD1E3B2994670239846C35C9C461C4062
:10208000A145E2D17424045BABB22540AB42DCD164
:102090009643C6532CE0E2B2914670229046825C91
:1020A00014404C4500D018E7AFB2B9467427C75B5F
:1020B0003D40A94500D010E763469E435B46C652AB
:1020C0004346A243C254C4E7E7B2B9467027B846B4
:1020D000C75DBC463C40A14500D00DE77427C75BF7
:1020E000ACB23D40AC4200D006E75B469643C652D8
:1020F0004A466346934342468354AAE7E2B2924675
:1021000070229146825C90461440A24500D002E7BE
:102110007424045BAAB22540AA4200D0FBE66346C1
:102120009E43C6535246434693434A46835490E7E0
:10213000E2B2924670229146825C90461440A245DB
:1021400000D0F7E67424045BAAB22540AA4200D06E
:10215000F0E6E4E7E2B2924670229146825C904655
:102160001440A24500D0F6E67424045BB2B22640C7
:10217000B24200D0EFE66346AF43C752D2E7E2B2C5
:10218000924670229146825C90461440A24500D04F
:10219000F3E67424045BB2B22640B24200D0ECE60F
:1021A000E9E7E2B2924670229146825C9046144082
:1021B000A24500D0F3E67424045BB2B22640B242DA
:1021C00000D0ECE6D7E7E2B2924670229146825CFC
:1021D00090461440A24500D0F3E67424045BB2B2EA
:1021E0002640B24200D0ECE6C5E7E2B29246702249
:1021F0009146825C90461440A24500D0F3E67424D8
:10220000045BB2B22640B24200D0ECE6B3E7E2B2E1
:10221000924670229146825C90461440A24500D0BE
:10222000F5E67424045BB2B22640B24200D0EEE67A
:10223000A1E7E2B2924670229146825C9046144039
:10224000A24500D0F7E67424045BB2B22640B24245
:1022500000D0F0E68FE7C046CC23C35813205B784C
:10226000042B02D8014A5B00985A7047807B051006
:10227000702330B5C15C613B02000B400A2B55D87E
:1022800032499B00CB589F46032331488370722309
:10229000D45A703B61000B400121A5080D402B432F
:1022A00065080D40AD002B43E5080D40ED002B43C4
:1022B00025090D402D012B4365090D406D012B4370
:1022C000A5090D40AD012B43E5090D40ED012B4360
:1022D000250A0D402D022B43650A0D406D022B434C
:1022E000A50A0D40AD022B43E50A0D40ED022B433C
:1022F000250B0D40640B2D0321402B4349030B4359
:102300000188890B89030B4303807623D35A1B0A68
:10231000C3707823D35A1B0A03717A23D35A1B0A3A
:1023200043717C23D35A1B0A837130BD0823ACE769
:102330000023AAE70423A8E70623A6E70723A4E7C8
:102340000523A2E70223A0E701239EE7EC7A05100C
:102350009C370020702370B5C25C613B01001340C4
:102360000A2B51D8304A9B00D3589F4603232F484D
:102370000122837072230225CC5A6600A3083540DF
:1023800013402B4365081540AD002B43E50815406D
:10239000ED002B43250915402D012B436509154000
:1023A0006D012B43A5091540AD012B43E5091540EF
:1023B000ED012B43250A15402D022B43650A1540DC
:1023C0006D022B43A50A1540AD022B43E50A1540CB
:1023D000ED022B43250B1540640B2D0322402B43AC
:1023E0005203134303807623CB5A1B0AC37078230E
:1023F000CB5A1B0A03717A23CB5A1B0A43717C23E5
:10240000CB5A1B0A837170BD0823B0E70023AEE7E7
:102410000423ACE70623AAE70723A8E70523A6E7DA
:102420000223A4E70123A2E7187B051054370020FC
:10243000702370B5C55C0233C15AAA08713B6E089F
:102440001A401E407600920032431E002E40ED08D6
:102450001D40ED0032432A434D0A1D402D012A4301
:102460000D0A1D406D012A438D0A1D40AD012A430E
:10247000CD0A1D40ED012A431D00040020480D40F7
:1024800082700A092D011A402A434D091D406D0032
:102490002A430D0B1D40AD002A434D081D406D0120
:1024A0002A438D081D40AD012A43CD081D40ED0192
:1024B0002A43C270134D7622AC46A25A6244C280AF
:1024C0007822A55A104A551B05817A25655B65441B
:1024D00045817C25655B521B82812278002A06D0CB
:1024E0007D33E35C03717F23E35C437170BD8A0934
:1024F000C9091A400B4052425B420271DBB2F4E759
:10250000403700200080FFFFFF7F0000F8B5CE4677
:102510004746702380B5C25C613B13400A2B00D94B
:1025200081E0534A9B00D3589F4603227223C65A28
:10253000713BB7081F403F013A431F0037407F01FE
:102540003A4377081F40BF013A43F7081F40494C00
:10255000FF013A4362717209B5091A4037091F40F9
:102560001D40F10952003A431940AF003A43CF00F1
:102570003A4390460F22A779974342463A43A271C5
:10258000CC228258D27A002A62D0B70A1F40720B3E
:10259000B846F70A1A401F409146BC46720A370BEC
:1025A000360A1A401F4033404E465201360132432C
:1025B0004646B60132436646F60132433F023A438D
:1025C0005B0213432C4EE28832401343E3807623B0
:1025D000C35A1B0A63707823C35A1B0AA3707A2359
:1025E000C35A1B0AE3707C23C35A1B0A2371037866
:1025F000002B28D07E23C35C23727F23C15C802301
:10260000200061721D495B420A7823301A430A7028
:102610000A79134308220B7133F0AEFD2000C0BCD1
:10262000B946B046F8BD0F2280E706227EE70722B2
:102630007CE705227AE7022278E7002276E7042287
:1026400074E7012272E76D4249422572C9B2D6E7AA
:10265000B70A1F40320AB846F70A1A401F4091468F
:10266000BC46720A370B760B1A401F4033409BE77B
:10267000447B05105C3700200FFCFFFF084300205F
:1026800070B5C14C0500200052F07EF9002844D1FD
:10269000BE4B202200211C00180033F067FD2122D0
:1026A0000021631E99544F32AA5C01311800114277
:1026B00000D093E10223134200D054E1530700D528
:1026C00040E1120700D52BE172230122EB5A1A4296
:1026D00000D013E19A0700D5FEE05A0700D5E9E0E3
:1026E0001A0700D5D4E0DA0600D5BFE09A0600D577
:1026F000AAE05A0600D595E01A0600D580E0DA0572
:1027000000D56BE09A0557D45A0543D41A052FD447
:10271000DA041BD49B0407D470BD9D4800F00CFC68
:10272000200052F04DF9B3E7994B9A4A9B5CE72B96
:1027300000D81DE202221833DBB2027000220C2BFB
:1027400001D8954AD25C2123C254E5E7904A9349C7
:10275000525CE72A00D800E202211832D2B201709E
:1027600000210C2A01D88C49895C21228154D1E7AF
:10277000874A8B49525CE72A00D8E3E102211832EC
:10278000D2B2017000210C2A01D88349895C212230
:102790008154BDE77E4A8349525CE72A00D8C6E1EE
:1027A00002211832D2B2017000210C2A01D87A49D4
:1027B000895C21228154A9E7754A7B49525CE72A4A
:1027C00000D8A9E102211832D2B2017000210C2AEE
:1027D00001D87149895C2122815495E76C4A73497B
:1027E000525CE72A00D88CE102211832D2B2017083
:1027F00000210C2A01D86849895C2122815481E793
:10280000634A6B49525CE72A00D86FE10221183213
:10281000D2B2017000210C2A01D85F49895C2122C3
:1028200081546CE75A4A6349525CE72A00D852E166
:1028300002211832D2B2017000210C2A01D8564967
:10284000895C2122815457E7514A5B49525CE72A4F
:1028500000D835E102211832D2B2017000210C2AD1
:1028600001D84D49895C2122815442E7484A5349A5
:10287000525CE72A00D818E102211832D2B2017066
:1028800000210C2A01D84449895C212281542DE77A
:102890003F4A4B49525CE72A00D8FBE0022118323C
:1028A000D2B2017000210C2A01D83B49895C212257
:1028B000815418E7364A4349525CE72A00D8DEE0E3
:1028C00002211832D2B2017000210C2A01D83249FB
:1028D000895C2122815403E72D4A3B49525CE72A57
:1028E00000D8C1E002211832D2B2017000210C2AB6
:1028F00001D82949895C21228154EEE62449334CD0
:10290000095DE72900D8A5E018310132C9B202708B
:1029100000220C2901D8204A525C21214254D9E6D8
:102920001B4B2B4A9B5CE72B00D888E00222183314
:10293000DBB2027000220C2B01D8174AD25C212393
:10294000C254C1E6124B23495B5CE72B6CD90221D0
:102950001833DBB2017000210C2B01D80E49C95C81
:102960002123C154ADE60A491B4C095DE72950D922
:102970001831C9B2037000230C2901D8064B5B5CE7
:10298000212143549AE6C046004300201D37002011
:10299000CC8C002094070000707B05108C07000091
:1029A000840700007C070000740700006C0700002B
:1029B000640700005C070000540700004C0700009B
:1029C000440700003C070000340700002C0700000B
:1029D000240700001C070000140700006A486B4C25
:1029E000005DE7280CD918300131C0B219700023FE
:1029F0000C2801D8664B1B5C21216648435459E6DC
:102A00000726C4083040197081401C1918006170F5
:102A100050E607260123CC08314003708B4004198F
:102A200061780B43637049E607260121DC083340D7
:102A300001709940041963781943617041E60724D5
:102A40000122D908234002709A4041184B781A435A
:102A50004A7039E60725CC08294002708A400419DB
:102A600061780A43627035E607250121D4082A40BF
:102A70000170914004196278114361702DE60725B9
:102A80000121D4082A400170914004196278114351
:102A9000617025E607250121D4082A400170914084
:102AA00004196278114361701DE607250121D408DD
:102AB0002A4001709140041962781143617015E653
:102AC00007250121D4082A40017091400419627839
:102AD000114361700DE607250121D4082A400170D9
:102AE0009140041962781143617005E607250121C0
:102AF000D4082A4001709140041962781143617032
:102B0000FDE507250121D4082A40017091400419F0
:102B1000627811436170F5E507250121D4082A4048
:102B2000017091400419627811436170ECE507254A
:102B30000121D4082A4001709140041962781143A0
:102B40006170E3E507250121D4082A400170914016
:102B50000419627811436170DAE507250121D40870
:102B60002A40017091400419627811436170D1E5E7
:102B700007240122D908234002709A4041184B785B
:102B80001A434A70C8E5C046CC8C00200C070000F0
:102B9000707B05101C370020CC2310B5C3585B7820
:102BA000032B0CD006D8002B0FD0012B0AD1FFF736
:102BB000D1FB10BD042B05D1FFF7A8FCF9E7FFF707
:102BC0005FFDF6E7FFF754FBF3E7FFF731FCF0E7B3
:102BD00030B5174A8FB0136801331360012B08D149
:102BE0000122144B52421A6000225A609A60DA6045
:102BF0001A61114A136801331360012B01D00FB021
:102C000030BD38220D49684633F0B6FA00230C4C2B
:102C1000382023606360A36033F0B4FA05003822E3
:102C2000383569462060A56033F0A6FA6560E6E7AE
:102C3000EC420020D4420020E84200208C7B0510AA
:102C4000D8BA0020044B10B51868002803D0996842
:102C5000091A33F0A3FA10BD88870020F8B545683B
:102C6000046807000E00AC4206D023681A79B2420D
:102C700003D00434A542F8D1F8BD186804340368C1
:102C80005B6998477D68A542EFD1F5E7F8B54568DF
:102C9000046807000E00AC4206D023681A79B242DD
:102CA00003D00434A542F8D1F8BD18680434036891
:102CB0001B6998477D68A542EFD1F5E7F8B5454611
:102CC000DE4657464E460368E0B546689346374AA7
:102CD0009846F31A05008A469B10934262D0B0458D
:102CE00056D01A009A18934247D8534641465C1A68
:102CF000002300279946002A4CD15B461B683B51B4
:102D0000002C2ADC534604343C19F61A002E0DDC44
:102D10004346A419002B19D14B462F606C60AB6061
:102D2000F0BCBB46B246A946A046F8BD2000320022
:102D3000514633F021FA4346A419002BECD005E0AC
:102D400020003200514633F017FAA4194346A9680F
:102D5000C91A404633F022FADEE722004146380025
:102D600054F0B0F8534604343C19F61A002EE7DC50
:102D70004346A968A419C91AEBE7534642469C1A70
:102D80000B4B9946484633F0FDF907008144B4E700
:102D90000122A7E780239B059A4200D3034A9300B0
:102DA0009946EFE7034852F015F8C046FFFFFF1FB2
:102DB000FCFFFF7FC47B0510F0B50B68050083B0F6
:102DC00008009B680C0017009847002805D123686D
:102DD00020005B68984703B0F0BD082033F0D2F9BB
:102DE000060023680190DB68200098476968AB689B
:102DF00034603771994219D040C169600E4E30007D
:102E000051F0C2FD0D4D002804D12100280001F031
:102E1000E7FAE0E700230A482B606B60AB602B61A8
:102E200053F0EEFB300051F0CBFDEEE7280001AA95
:102E3000FFF744FFE2E7C046F84200208887002001
:102E4000452C0010F0B50B68050083B008009B68A6
:102E50000C0017009847002805D1236820005B6804
:102E6000984703B0F0BD082033F08CF906002368C2
:102E70000190DB68200098476968AB68346037715F
:102E8000994202D040C16960EBE7280001AAFFF730
:102E900015FFE6E770B505000C1E01D02C7070BD63
:102EA000042033F06FF90600024B036010F08AFA39
:102EB0006E60F3E744B5051010B5406803685B68C1
:102EC000984710BD30B5174A8FB0136801331360AF
:102ED000012B08D10122144B52421A6000225A6081
:102EE0009A60DA601A61114A136801331360012B8A
:102EF00001D00FB030BD38220D49684633F03CF99F
:102F000000230C4C382023606360A36033F03AF94F
:102F100005003822383569462060A56033F02CF969
:102F20006560E6E7EC420020D4420020E842002041
:102F3000E07B0510D8BA0020CE2370B50025040030
:102F40005B01057045608560C5500A4B9E220021DB
:102F5000C01833F00BF9084B0848E55048F012FD53
:102F6000074BE0182FF0D6F8064BE0180AF038FFB0
:102F7000200070BDC4190000641A0000D042002077
:102F8000B8190000D4040000034B10B59C466044FF
:102F90000AF076FE10BDC046D4040000F8B5CE4657
:102FA000474680B5BFF35B8FFA4B0400C6183378F1
:102FB000BFF35B8F002B00D1D8E3F74BC258EFF380
:102FC000108172B61368002BFCD0BFF35F8FF24BF9
:102FD000E718F24B79601800984651F0D5FCF04D97
:102FE000002800D0C6E3EF4BEF4AE3181979A95047
:102FF0005979EE4AA9509979ED4AA950D979ED4A03
:10300000A9505A7A197A12020A431204EA49121490
:103010006A50DA7A997A12020A431204E7491214C2
:103020006A50197BE64AA950597BE64AA954DA7BD3
:10303000997B12020A43197C090411435A7C120637
:103040000A43E1496A50DA7C997C12020A43197DED
:10305000090411435A7D12060A43DC496A50DA7D9D
:10306000997D12020A43197E090411435A7E120601
:103070000A43D7496A50DA7E997E12020A43197FC1
:10308000090411435A7F12060A43D2496A509A7FB3
:10309000DB7F1B021343D04AA218127812041A4392
:1030A000CE4BE3181B781B061343CD4AAB50CD4BD8
:1030B000E3181A78CC4BE3181B781B021343CB4A56
:1030C000A218127812041A43C94BE3181B781B0686
:1030D0001343C84AAB50C84BE3181A78C74BE318E0
:1030E0001B781B021343C64AA218127812041A4313
:1030F000C44BE3181B781B061343C34AAB50C34BA6
:10310000E3181A78C24BE3181B781B021343C14A19
:10311000A218127812041A43BF4BE3181B781B063F
:103120001343BE4AAB50BE4BE3181A78BD4BE318AD
:103130001B781B021343BC4AA218127812041A43CC
:10314000BA4BE3181B781B061343B94AAB50B94B73
:10315000E3181A78B84BE3181B781B021343B74ADD
:10316000A218127812041A43B54BE3181B781B06F9
:103170001343B44AAB50B44BE3181A78B34BE3187B
:103180001B781B021343B24AA218127812041A4386
:10319000B04BE3181B781B061343AF4AAB50AF4B41
:1031A000E3181A78AE4BE3181B781B021343D022A6
:1031B0005201A218127812041A43AA4BE3181B7882
:1031C0001B061343A84AAB50A84BE3181A78A84B28
:1031D000E3181B781B021343A64AA21812781204A4
:1031E0001A43A54BE3181B781B061343A34AAB50A5
:1031F000A34BE3181A78A34BE3181B781B02134365
:10320000A14AA218127812041A43A04BE3181B78A3
:103210001B0613439E4AAB509E4BE3181A789E4BF5
:10322000E3181B781B0213439C4AA218127812045D
:103230001A439B4BE3181B781B061343994AAB5068
:10324000994BE3181A78994BE3181B781B02134328
:10325000974AA218127812041A43964BE3181B7867
:103260001B061343944AAB50944BE3181A78944BC3
:10327000E3181B781B021343924AA2181278120417
:103280001A43914BE3181B781B0613438F4AAB502C
:103290008F4BE3181A788F4BE3181B781B021343EC
:1032A0008D4AA218127812041A438C4BE3181B782B
:1032B0001B0613438A4AAB508A4BE3181A788A4B91
:1032C000E3181B781B021343884AA21812781204D1
:1032D0001A43874BE3181B781B061343854AAB50F0
:1032E000854BE3181A78854BE3181B781B021343B0
:1032F000D1225201A218127812041A43804BE3180B
:103300001B781B0613437F4AAB507F4BE3181A7898
:103310007E4BE3181B781B0213437D4AA2181278D8
:1033200012041A437B4BE3181B781B0613437A4A9B
:10333000AB507A4BE3181A78794BE3181B781B02D1
:103340001343784AA218127812041A43764BE318F2
:103350001B781B061343754AAB50754BE3181A785C
:10336000744BE3181B781B021343734AA21812789C
:1033700012041A43714BE3181B781B061343704A5F
:10338000AB50704BE3181A786F4BE3181B781B0295
:103390001343DBE0B4190000B8190000004300201B
:1033A000CC8C0020C41900002C0D0000340D00004E
:1033B0003C0D0000440D00004C0D0000540D0000B9
:1033C0005C0D0000610D0000640D00006C0D00003C
:1033D000740D00007C0D0000E4190000E5190000E8
:1033E000840D0000E6190000E7190000E81900004C
:1033F000E91900008C0D0000EA190000EB1900002B
:10340000EC190000ED190000940D0000EE19000009
:10341000EF190000F0190000F11900009C0D0000E8
:10342000F2190000F3190000F4190000F51900006A
:10343000A40D0000F6190000F7190000F8190000AB
:10344000F9190000AC0D0000FA190000FB1900008A
:10345000FC190000FD190000B40D0000FE19000069
:10346000FF190000011A0000BC0D0000021A000044
:10347000031A0000041A0000051A0000C40D000021
:10348000061A0000071A0000081A0000091A0000B6
:10349000CC0D0000121A0000131A0000141A0000CC
:1034A000151A0000E40D0000161A0000171A00009B
:1034B000181A0000191A0000EC0D00000A1A00008A
:1034C0000B1A00000C1A00000D1A0000D40D0000A9
:1034D0000E1A00000F1A0000101A0000111A000046
:1034E000DC0D00001A1A00001B1A00001C1A000054
:1034F0001D1A0000F40D00001E1A00001F1A000023
:10350000211A0000FC0D0000221A0000231A0000FE
:10351000241A0000251A0000040E0000261A0000DC
:10352000271A0000281A0000291A00000C0E0000BB
:103530002A1A00002B1A00002C1A00002D1A000075
:10354000140E00002E1A00002F1A00009A4AA2182A
:10355000127812041A43994BE3181B781B06134385
:10356000974AAB50974BE3181A78974BE3181B78A0
:103570001B021343954AA218127812041A43944B63
:10358000E3181B781B061343924AAB50924BE31887
:103590001A78924BE3181B781B021343904AA21827
:1035A000127812041A438F4BE3181B781B0613433F
:1035B0008D4AAB508D4BE3181A788D4BE3181B786E
:1035C0001B0213438B4AA218127812041A438A4B27
:1035D000E3181B781B061343884AAB50884BE3184B
:1035E0001A78884BE3181B781B021343D22252012E
:1035F000A218127812041A43834BE3181B781B0697
:103600001343824AAB50824BE3181A78814BE3187C
:103610001B781B021343804AA218127812041A4323
:103620007E4BE3181B781B0613437D4AAB507D4B42
:10363000E3181A787C4BE3181B781B0213437B4A70
:10364000A218127812041A43794BE3181B781B0650
:103650001343784AAB50784BE3181A78774BE3184A
:103660001B781B021343764AA218127812041A43DD
:10367000744BE3181B781B061343734AAB50734B10
:10368000E3181A78724BE3181B781B021343714A34
:10369000A218127812041A436F4BE3181B781B060A
:1036A00013436E4AAB506E4BE3181A786D4BE31818
:1036B0001B781B0213436C4AA218127812041A4397
:1036C0006A4BE3181B781B061343694AAB50694BDE
:1036D000E3181A78684BE3181B781B021343D322B4
:1036E0005201A218127812041A43644BE3181B7893
:1036F0001B061343624AAB50624BE3181A78624BC5
:10370000E3181B781B021343604AA21812781204B4
:103710001A435F4BE3181B781B0613435D4AAB50FB
:103720005D4BE3181A785D4BE3181B781B021343BB
:103730005B4AA218127812041A435A4BE3181B78FA
:103740001B061343584AAB50584BE0180AF098FA3E
:103750000023BFF35B8F3370BFF35B8F544AA158D4
:103760007A68BFF35F8F0B6082F31088C0BCB946E4
:10377000B046F8BD002399462B706B60AB60CE233A
:103780004A465B01EA504B4B0021E8189E3232F06A
:10379000EDFC4A46484B4948EA5048F0F3F8444BA0
:1037A000E8182EF0B7FC414BE8180AF019FB404628
:1037B00051F006F917E4C046301A0000311A000033
:1037C0001C0E0000321A0000331A0000341A0000E8
:1037D000351A0000240E0000361A0000371A0000C7
:1037E000381A0000391A00002C0E00003A1A0000A6
:1037F0003B1A00003C1A00003D1A0000340E000085
:103800003E1A00003F1A0000411A00003C0E000062
:10381000421A0000431A0000441A0000451A000032
:10382000440E0000461A0000471A0000481A000023
:10383000491A00004C0E00004A1A00004B1A000002
:103840004C1A00004D1A0000540E00004E1A0000E1
:103850004F1A0000501A0000511A00005C0E0000C0
:103860005A1A00005B1A00005C1A00005D1A000082
:10387000740E00005E1A00005F1A0000611A00005A
:103880007C0E0000521A0000531A0000541A000067
:10389000551A0000640E0000561A0000571A000066
:1038A000581A0000591A00006C0E0000D4040000E1
:1038B000B8190000C4190000641A0000D0420020AA
:1038C000F0B5C6460F0000B582B006003D0001A865
:1038D00047F0FCFF3C009E35210001A8013447F071
:1038E000F9FFAC42F8D101A848F00CF8174B0400DE
:1038F000F158EFF3108372B60A68002AFCD0BFF3C8
:103900005F8F124AB5186B6008329046B258A242D7
:103910000FD00F4B9E22F018390032F02DFC434699
:103920000122F450BFF35B8F0A4BF254BFF35B8F5D
:103930006B68064AB258BFF35F8F0021116083F3B2
:10394000108802B080BCB846F0BDC046B81900006F
:10395000C4190000B419000010B5054848F076F805
:10396000FA2200200349D2002FF0DEFE10BDC0462F
:10397000D042002000200420F0B54E464546DE46E9
:103980005746E0B53D4D0400465983B0002E07D0A0
:10399000300003B0F0BCBB46B246A946A046F0BD1D
:1039A000982032F08DFB364B6051E558354B98220C
:1039B000E118023D060032F0DFFB022DE8D86B0073
:1039C0005B19314A5B01E3189A1812689346C522C5
:1039D00052019A18126892462C4A9A181268914617
:1039E0002B4A9A18126890462A4A9A18126800922E
:1039F000C62252019A181768274A9A181568274A4A
:103A00009A181468264A9A181068C72252019A1800
:103A10001168244A9A1812680192234A94465A4619
:103A200063441B681D2A00D8726252461D2A00D8C2
:103A3000F2624A461D2A00D8726342461D2A00D807
:103A4000F263009A1D2A00D872641D2F00D8F76413
:103A50001D2D00D875651D2C00D8F4651D2800D8D3
:103A600070601D2900D8F160019A1D2A00D872618A
:103A70001D2B00D98CE7F3618AE7C046641A000069
:103A80000C0500006C06000098180000A818000043
:103A9000B0180000B8180000C8180000D0180000C6
:103AA000D8180000E8180000F0180000F0B54546EE
:103AB000DE4657464E46E0B54B1E04000D0085B06D
:103AC000032B06D905B0F0BCBB46B246A946A046BA
:103AD000F0BD424B424E98228059E11832F04CFB27
:103AE000AA1E022A76D853009B185B013D4AE318B0
:103AF0009A1812689346C52252019A181268924683
:103B0000394A9A1812689146384A9A1812689046AB
:103B1000374A9A1812680092C62252019A181768FA
:103B2000344A9A181068344A9A1812680192334A33
:103B30009A1812680292C72252019A181168304AE4
:103B40009A18126803922F4A94465A4663441B6897
:103B50001D2A01D8A659726252461D2A02D8204E4B
:103B6000A659F2624A461D2A02D81D4EA659726312
:103B700042461D2A02D81A4EA659F263009A1D2AFF
:103B800002D8174EA65972641D2F02D8144EA6599A
:103B9000F7641D2802D8124EA6597065019E1D2E8D
:103BA00002D80F482058C665029E1D2E02D80C4828
:103BB000205846601D2902D809482058C160039A40
:103BC0001D2A02D8064961584A611D2B02D8044AB1
:103BD000A258D3610C4BE55074E7C0466C06000058
:103BE000641A000098180000A8180000B01800001F
:103BF000B8180000C8180000D0180000D81800003D
:103C0000E8180000F01800000C0500000300054A49
:103C100010B50170991895222C30D20032F0ACFA10
:103C200010BDC0469C070000007870474160704797
:103C300040687047816070478068704710B52022E7
:103C400000210C3032F092FA10BDC0460C307047A3
:103C5000F8B5F74E0500300050F096FEF54C002800
:103C600000D044E200232B706B70AB70EB70F24B12
:103C7000E358FF2B00D9FF232B71F04BE358FF2BA8
:103C800000D9FF236B71EE4BE358FF2B00D9FF23C4
:103C9000AB71EC4BE358FF2B00D9FF238022EB7173
:103CA000E94B5202E358934200DBE84B9AB2120A06
:103CB0006A7280222B72E64B5202E358934200DB79
:103CC000E24BAB729AB2E34B120AE358EA72E24A51
:103CD0002B73A25CE14B2800E35CAA73DE4A6B7392
:103CE000A21851782B00E9739178D27829746A74FC
:103CF000DB4A1E33A25CAA74D94AA2185178E9742F
:103D00009178D27829756A75D64AA25CAA75D54A87
:103D1000A2185178E9759178D27829766A76D24AD4
:103D2000A25CAA76D04AA2185178E9769178D27826
:103D300029776A77CD4AA25CAA77CC4AA218517833
:103D4000E9779178D2789970DA70C94AA25C1A71D1
:103D5000C74AA218517859719178D2789971DA715D
:103D6000C44AA25C1A72C34AA21851785972917857
:103D7000D2789972DA72C04AA25C1A73BE4AA2184B
:103D8000517859739178D2789973DA73BB4A1033AA
:103D9000A25C1A70B94AA218517859709178D278F9
:103DA0009970DA70B64AA25C1A71B54AA2185178B5
:103DB00059719178D2789971DA71B24AA25C1A720B
:103DC000B04AA218517859729178D2789972DA7201
:103DD000AD4AA25C1A73AC4AA21851785973917813
:103DE000D2789973DA73A94A1033A25C1A70A74A81
:103DF000A218517859709178D2789970DA70A44AE3
:103E0000A25C1A71A24AA218517859719178D2789D
:103E10009971DA719F4A0833A25C1A729D4AA218FE
:103E2000517859729178D2789972DA729A4AA25C72
:103E30001A73994AA218517859739178D278997364
:103E4000DA73964AA25C1A70944AA2185178597093
:103E50009178D2789970DA70914A0433A25C1A7022
:103E60008F4AA218517859709178D2789970DA7087
:103E70008C4AA25C1A738B4AA218517859739178B4
:103E8000D2789973DA73884AA25C1A74864AA218A7
:103E9000517859749178D2789974DA74834AA25C13
:103EA0001A75824AA218517859759178D278997505
:103EB000DA757F4A1833A25C1A707D4AA2185178CD
:103EC00059709178D2789970DA707A4AA25C1A7136
:103ED000784AA218517859719178D2789971DA712B
:103EE000754AA25C1A72744AA21851785972917874
:103EF000D2789972DA72714AA25C1A736F4AA21868
:103F0000517859739178D2789973DA736C4A103377
:103F1000A25C1A706A4AA218517859709178D278C6
:103F20009970DA70674AA25C1A71664AA2185178D1
:103F300059719178D2789971DA71634AA25C1A72D8
:103F4000614AA218517859729178D2789972DA72CE
:103F50005E4AA25C1A735D4AA2185178597391782F
:103F6000D2789973DA735A4BE25C8223EA54584B45
:103F7000E2182B005178823359709178D278997079
:103F8000DA70544BE25C8623EA54524BE2182B0061
:103F90005178863359709178D2789970DA704E4B97
:103FA000E25C8A23EA544C4BE2182B0051788A33A6
:103FB00059709178D2789970DA70484BE25C962308
:103FC000EA54464BE2182B00517896335970917899
:103FD000D2789970DA70424BE25C9A23EA54404BF3
:103FE000E2182B0051789A3359709178D2789970F1
:103FF000DA703C4BE25C8E23EA543A4BE2182B0019
:1040000051788E3359709178D2789970DA70364B36
:10401000E25C9223EA54344B9C462B006444627861
:1040200092335A70A2789A70E278DA705EE0C046F5
:1040300000430020CC8C00202C0D0000340D00002B
:104040003C0D0000440D00004C0D0000FFFF00007F
:10405000540D00005C0D0000640D0000610D0000B7
:104060006C0D0000740D00007C0D0000840D00003C
:104070008C0D0000940D00009C0D0000A40D0000AC
:10408000AC0D0000B40D0000BC0D0000C40D00001C
:10409000CC0D0000E40D0000EC0D0000D40D00007C
:1040A000DC0D0000F40D0000FC0D0000040E00000B
:1040B0000C0E0000140E00001C0E0000240E000068
:1040C0002C0E0000340E00003C0E0000440E0000D8
:1040D0004C0E0000540E00005C0E0000740E000038
:1040E0007C0E0000640E00006C0E0000F8BDCE23B4
:1040F00000275B01E7500D4B9E220021E01827703E
:104100006760A76032F032F8094B0A48E75047F081
:1041100039FC094BE0182DF0FDFF084BE01809F0C1
:104120005FFE300050F04CFC9CE5C046C419000016
:10413000641A0000D0420020B8190000D404000026
:1041400070B5154D280050F01FFC144C002804D108
:1041500020001349FFF7B4FB70BDCE2300265B019E
:10416000E650104B9E220021E01826706660A66083
:1041700031F0FCFF0C4B0D48E65047F003FC0C4BB4
:10418000E0182DF0C7FF0B4BE01809F029FE2800BE
:1041900050F016FCDCE7C04600430020CC8C002029
:1041A00020660020C4190000641A0000D0420020DC
:1041B000B8190000D404000030B5174A8FB0136856
:1041C00001331360012B08D10122144B52421A60B3
:1041D00000225A609A60DA601A61114A136801334A
:1041E0001360012B01D00FB030BD38220D49684655
:1041F00031F0C2FF00230C4C382023606360A360C1
:1042000031F0C0FF05003822383569462060A560CE
:1042100031F0B2FF6560E6E7EC420020D4420020B6
:10422000E8420020187C0510D8BA002080208003C6
:104230007047C0460148024BC01A7047E06C0B1033
:1042400000000010024B0348C01A034BC01870470F
:104250000000042000200420146201000148024BE9
:10426000C01A7047000004201462012000B58BB012
:10427000684652F01FFD07980BB000BD10B5040052
:1042800001200649404235F015FA054B0022002175
:1042900000201C622FF048FA30BFFDE7FFFFFF0F40
:1042A0000080054010B52FF08DFA002811D00A4B80
:1042B000186A0A4B984208D0094B984205D0094B1E
:1042C000C3185A4253415B4218400022024B1A6203
:1042D00010BD0020FCE7C04600800540CD66D543F8
:1042E000A58477E71F1BC808044B10B51868002881
:1042F00003D09968091A31F051FF10BD888700205A
:10430000F0B5D6464F464646C0B5C47882B0002CBC
:1043100005D18368DD799A792D02154305D102B064
:10432000E0BCBA46B146A846F0BD9A78DE7803787C
:1043300036029846144B16431800994650F024FB59
:10434000124F002815D13C687B689C42E7D0330AA5
:104350009946F3B29A464A4601CC41460368009218
:1043600001950022DE6A5346B0477A68A242F2D134
:10437000D5E707483C607C60BC603C6152F040F986
:10438000484650F01DFBDEE7F842002088870020F9
:10439000E94200100174704770B502684368040078
:1043A00084B09A4216D06A4611000B4B61CB61C1B2
:1043B00001251B6801200B60237C08491370957050
:1043C00032F024FD012032F037FD0A2000212EF0CA
:1043D00029FB657404B070BD507C0510004C0400CE
:1043E000F8B5CE4647464368826804000D0080B5A4
:1043F000934205D002C34360C0BCB946B046F8BD85
:10440000026822499E1A9046B2108A423AD0434529
:104410002BD01300D3189A421FD8002200279146B0
:10442000002B27D1BD51002E09DC43460436BE19AE
:10443000002B1CD14B4627606660A360DCE732008E
:104440004146380052F03EFD4346A1680436BE198D
:10445000C91A404631F0A2FEECE70D4B994648469A
:1044600031F090FE07008144DCE70123D2E7A16828
:10447000C91AEEE780229205934200D3034B9B00BA
:104480009946ECE7034850F0A5FCC046FFFFFF1F2C
:10449000FCFFFF7FC47B051010B5437C002B00D1CF
:1044A00010BD01200021404232F026FDF8E7C04651
:1044B000F0B5DE46574645464E469B468023E0B55E
:1044C000C5B08A46904600215B0004AA039033F0F1
:1044D000F1F800283CD102AB5B8904AAD51802ABE5
:1044E0001B7AD618B54233D9737801220B2B03D12E
:1044F0003378F278F6187378042B48D17379032B4C
:1045000059D0A91B571E89B2FFB2002AEAD03278CF
:10451000330014000020201880B29B18814206D876
:104520000DE01A78101880B29B18814207D95A788A
:104530000B2A0AD0042AF4D1DA78002AF1D1013FFB
:10454000FFB2FF2F01D01A78E5E73618B542CBD875
:104550001B4E300050F018FA1A4B994600281DD116
:104560004B464A465B6816689E420CD05A4601CEBE
:10457000039903680092DD6952464346A8474B46BB
:104580005B68B342F2D15146039833F0EFFE45B079
:10459000F0BCBB46B246A946A046F0BD00234A4641
:1045A0000948136053609360136152F029F830009A
:1045B00050F006FAD4E7054BB2781A70C8E7C04647
:1045C000F842002088870020E9420010F2610120B3
:1045D00070B5104C0600200050F0D6F90E4D0028A2
:1045E0000CD12C686B689C4207D001CC3100036869
:1045F0001B6A98476B68A342F7D170BD0023074838
:104600002B606B60AB602B6151F0FAFF200050F023
:10461000D7F9E6E7F842002088870020E942001039
:10462000F0B5D6464F464646C0B5194C070082B095
:104630002000884691469A4650F0A6F9154E00286B
:1046400019D1346873689C420BD0524601CC3900B2
:10465000036800925D6A42464B46A8477568A542CA
:10466000F3D14146380033F081FE02B0E0BCBA46D7
:10467000B146A846F0BD0023074833607360B360BD
:10468000336151F0BDFF200050F09AF9D9E7C046E0
:10469000F842002088870020E9420010F0B5574614
:1046A00045464E46DE46E0B583B098460CAB1B88C7
:1046B00005000E0017009A46002B06D103B0F0BC8F
:1046C000BB46B246A946A046F0BD154C200050F0AE
:1046D0005BF9144B9B46002815D15B461C685B6850
:1046E0009C42EBD0524601CC29000368019242461D
:1046F00000929B6A320099463B00C8475B465B6864
:10470000A342EFD1DAE700235A460748136053600B
:104710009360136151F074FF200050F051F9DCE711
:10472000F842002088870020E942001070B588B068
:104730006C460500A2201B020CA9134340C96380EC
:104740000B4B09881B78FF302080A380E18002ACEE
:1047500018220021200031F009FD064B20000693AD
:104760006B4625700493059632F0CEFB08B070BD01
:10477000F261012001430010F0B5D6464F4646468F
:10478000C0B5DC4D82B004006846AF6A47F09EF8C1
:10479000D94E29006846013547F09CF8B542F8D15A
:1047A000002301AD019302AE29006846013547F0B0
:1047B00091F8AE42F8D1684647F0A4F80026874247
:1047C00001D101F001F88023CC4D6846EF5847F045
:1047D0007DF8CB4B984629006846013547F07AF8BA
:1047E0004545F8D10023019302AB984601AD29005D
:1047F0006846013547F06EF8A845F8D1684647F09D
:1048000081F8874201D100F051FEBE4D68462F6FFE
:1048100047F05CF8BC4B984629006846013547F0E4
:1048200059F84545F8D10023019302AB984601ADF4
:1048300029006846013547F04DF8A845F8D168468B
:1048400047F060F8874201D101F0E8F8AF4B6846C5
:104850001B6801AD984647F039F8002302AF019379
:1048600029006846013547F035F8AF42F8D1A84D28
:10487000A84F29006846013547F02CF8BD42F8D111
:10488000684647F03FF8804500D01DE285230122AD
:104890001B01E254A04B0126E1189C4B187948609B
:1048A0009D48225458790A72C86098790A74486100
:1048B000D8790A76C8610825585F48629748201859
:1048C00002700A25585FC862954820180270187B4C
:1048D000486394482018027093485D7B2018057047
:1048E000924820180270188ADD8900042843C863A2
:1048F0008F4820180270988A5D8A00042843486413
:104900008C4820180270188BDD8A00042843C86484
:10491000894820180270988B5D8B000428434865F5
:10492000864820180270188CDD8B00042843C86567
:10493000834820180270988C5D8C000428434866D8
:10494000804820180270188DDD8C00042843C8664A
:104950007D4820180270988D5D8D000428434867BB
:104960007A4820180270188EDD8D00042843C8672D
:10497000774961180A7077495D8E6018998E09042D
:1049800029430160744961180A708E210901DD8E86
:104990006018198F090429430160704961180A7071
:1049A0006F495D8F6018998F0904294301606D4933
:1049B00061180A708F21090160184021595ADD8F52
:1049C000090429430160684961180A706749601841
:1049D00042215D5A0231595A090429430160644950
:1049E00061180A7090210901601846215D5A023150
:1049F000595A0904294301605E4961180A705E49E9
:104A000060184A215D5A0231595A0904294301604C
:104A10005A4961180A709121090160184E215D5AA6
:104A20000231595A090429430160554961180A7035
:104A30005449601852215D5A0231595A09042943D8
:104A40000160514961180A709221090160185621CC
:104A50005D5A0231595A0904294301604B496118D2
:104A60000A704B4960185A215D5A0231595A09049B
:104A700029430160474961180A70932109016018B0
:104A80005E215D5A0231595A0904294301604249A5
:104A900061180A704149601862215D5A0231595A01
:104AA0000904294301603E4961180A7094210901F3
:104AB000601866215D5A0231595A09042943016080
:104AC000384961180A70384960186A215D5A023104
:104AD000595A090429430160344961180A70952123
:104AE000090160186E215D5A0231595A090429439F
:104AF00001605DE000E01F1028E01F1000E41F10BF
:104B000080E41F1000E61F1070E61F1000E81F1061
:104B100004E81F109EE81F105408000074080000ED
:104B20007C080000840800008D0800008C0800004C
:104B30008E080000940800009C080000A4080000F3
:104B4000AC080000B4080000BC080000C408000065
:104B5000CC080000D8080000D4080000DC080000E1
:104B6000E8080000E4080000EC080000F808000075
:104B7000F4080000FC080000080900000409000017
:104B80000C09000018090000140900001C090000AD
:104B900028090000240900002C0900003809000041
:104BA000340900003C0900004809000044090000E5
:104BB0006D4961180A706D49601872215D5A0231A1
:104BC000595A090429430160694961180A709621FC
:104BD0000901601876215D5A0231595A09042943A6
:104BE0000160644961180A70634960187A215D5A4E
:104BF0000231595A090429430160604961180A7059
:104C00009721090160187E215D5A0231595A090421
:104C1000294301605A4961180A705A496018822173
:104C20005D5A0231595A09042943016056496118F5
:104C30000A7098210901601886215D5A0231595A7B
:104C4000090429430160514961180A7050496018EC
:104C50008A215D5A0231595A0904294301604D499C
:104C600061180A709921090160188E215D5A02317C
:104C7000595A090429430160474961180A70474994
:104C8000601892215D5A0231595A09042943016082
:104C9000434961180A709A210901601896215D5AEA
:104CA0000231595A0904294301609C259A203D4943
:104CB00061180A70185A5B5B3B491B040343611877
:104CC0000B603A4BE3181A70394D68466F6E46F028
:104CD000FDFD384B984629006846013546F0FAFD3F
:104CE0004545F8D10023019302AB984601AD290058
:104CF0006846013546F0EEFDA845F8D1684646F015
:104D000001FE874262D02C492C4A2D4B8A589A4288
:104D100000D1E1E280232B4DDB006846EF5846F0DE
:104D2000D5FD294B984629006846013546F0D2FD4D
:104D30004545F8D10023019302AB984601AD290007
:104D40006846013546F0C6FDA845F8D1684646F0EC
:104D5000D9FD874201D100F056FF300002B0E0BC1F
:104D6000BA46B146A846F0BD4C09000058090000FB
:104D7000540900005C090000680900006409000093
:104D80006C09000078090000740900007C0900002B
:104D900088090000840900008C09000098090000BF
:104DA000940900009C090000A8090000A409000063
:104DB00000EC1F1064EC1F1000F01F1094060000A0
:104DC000EFBEADDE00F81F1000FC1F100123F94AF2
:104DD000F948A354F94AA3545422815C4A1E9141D4
:104DE000F74AA2185170F64963541F33C35CFF2B76
:104DF00001D101F06BF853600123EF499370203328
:104E0000CB5CFF2B01D101F065F8D3600123137255
:104E10009B221201A3545622E749885C421E90410E
:104E2000E84AA2185070E7482354488C93705060A9
:104E3000E54AA3545722885C421E9041B3221201D6
:104E4000A2185070B320000123542B33CB5CFF2BEE
:104E500001D101F043F8012153602D23D648917010
:104E6000C35C1172D360D94BE1545823C25C531E0A
:104E70009A41B0231B01E3185A70B0221201A154C9
:104E8000427EFF2A01D101F02DF85A6001229A706A
:104E9000C94A927EFF2A01D101F058F8DA60012256
:104EA0001A72C54AD27EFF2A01D101F053F85A6125
:104EB00001221A74C04A127FFF2A01D100F060FF5C
:104EC000DA610122BC491A76497F022901D800F033
:104ED0004EFFB94A917F59620121BD4BE318197009
:104EE000B4231B01E1545923D05C431E9841B94BB4
:104EF000E3185870B74821542331525CFF2A01D17E
:104F000000F0C4FF5A600122AB499A70886A1A7295
:104F1000D860AD231B01E2545A23C85C431E98415C
:104F2000AD4BE3185870AC48225408699A70586029
:104F30004A7BFF2A01D100F0ADFFDA6001221A722C
:104F40009D4A927BFF2A01D100F0A8FF5A610122FD
:104F500099491A74087E1A76D861486958629F4B3D
:104F6000E3181A70A8231B01E2545B23C85C431E9C
:104F700098419B4BE3185870994822548A78FF2A2D
:104F800001D100F08FFF5A6001229A708A4AD278CC
:104F9000FF2A01D100F08AFFDA6001221A72914BD8
:104FA0008549E2545C23C85C431E98418E4BE3184C
:104FB00058708D4822542E20085C9A7058608B4B94
:104FC000E2545E23C85C431E9841AA231B01E318E8
:104FD0005870AA20000122544A78FF2A01D100F01B
:104FE00069FF5A6001229A70734A127AFF2A01D12E
:104FF00000F064FFDA6001226F491A72487A1A746D
:105000005861887A1A76D861C87A5862AC20000153
:1050100020180270087BD862754BE3181A70754B24
:10502000E2546023C85C431E9841734BE3185870E8
:10503000714822540A79FF2A01D100F043FF5A60D7
:1050400001229A705C4A5279FF2A01D100F056FF82
:10505000DA600122492158481A72415C042901D8BA
:1050600000F07BFE472254498A5C042A01D800F0F4
:1050700069FE482250498A5C042A01D800F05DFE8E
:1050800001225E4B4C48E2545523C35C591E8B41B0
:105090005B496118CB708A70C37F022B01D800F086
:1050A00047FE0120574B4449E0545F23CA5C531E1E
:1050B0009A41554BE3185A70534AA0540A78FF2A74
:1050C00001D100F01FFF5A6001229A703A4AD2794A
:1050D000FF2A01D100F00AFF0121DA60364A197275
:1050E0009079197458614531525CFF2A01D100F062
:1050F00001FF01212F20DA612F4A1976105C451E2D
:10510000A841424D65192870414820180170508E01
:105110005862404820180170908ED8623E4820188E
:105120000170D08E58633D4820180170108FD863ED
:105130003B48201801703931525CFF2A01D100F040
:10514000E5FE01215A64374AA21811703B221A4920
:105150008A5CFF2A01D100F0DDFE0121DA64324AC7
:10516000A21811703C2214498A5CFF2A01D100F078
:10517000D5FE01215A652D4AA21811703D220E4913
:105180008A5CFF2A01D100F0CDFEDA6501222849B0
:1051900061180A700849C88F58662648201802709E
:1051A0004020085AD8662448201802704220085A25
:1051B000586743E0AC09000000EC1F10C109000073
:1051C000C4090000B40900002C0B0000FC0A000018
:1051D000220B0000440B0000D40A0000F40A000077
:1051E000840A0000540B0000580B00009C0A0000C9
:1051F000C80A0000481200004C120000BC09000060
:10520000BD090000F8090000FC0900001D0A0000AB
:105210001C0A00001E0A0000240A00002C0A0000DC
:10522000340A00003C0A0000440A00004C0A000056
:10523000540A00005C0A0000640A00006E4820184E
:1052400002704420085AD8676C4BE3181A70302358
:10525000CB5C012B05D86A4961180B70694BE318C8
:105260001A700121684B694AE1546123D05C431EE6
:105270009841674BE318587065482154D06C997079
:1052800058604931525CFF2A01D100F04FFEDA60CC
:1052900001225E491A724A328A5CFF2A01D100F06B
:1052A00049FE5A61012259491A74086D1A76D8616B
:1052B000B6231B01E2545D23CB5C0126591E8B41B2
:1052C000544961184B70534B5349E254534A544B61
:1052D0008A589A4200D01DE50125524B8026E5549C
:1052E000B533FF33E55410234A4A7600A718BB8034
:1052F0004D4B1022E01830F03FFF4C4B32003E8304
:105300004B49BD70E01830F037FF4A4BBD75E318CC
:105310001E80C8231B0132004749E01830F02CFFE3
:105320000422464B4649E3181D70464B8027E3187C
:105330001A80454BE01830F01FFFD8231B01E318FB
:105340001D70424B3200E3181E80414B4149E0186A
:1053500030F012FF404B8022E3181D703F4B404954
:10536000E3181F80E9231B01E01830F005FF3D4BD7
:105370008022E3181D703C4B3C49E3181F803C4BD6
:10538000E01830F0F9FEF1231B01E3181D70394BD2
:105390008022E3181F80384B3849E01830F0ECFECB
:1053A000374B8022E3181D70364B3749E3181F80B6
:1053B000364BE01830F0E0FE354B8022E3181D70CC
:1053C000344B3549E3181F8085235B01E01830F02A
:1053D000D3FE324B3200E3181D70314B3149E318D4
:1053E0001E80314BFF3EE01830F0C6FE89235B0182
:1053F000E3181D708EE4C0466C0A0000740A0000B9
:105400007D0A00007C0A00002412000000EC1F103E
:1054100028120000620B000000F01F10940600002C
:10542000EFBEADDEAC090000680B00007C0B000095
:1054300010F01F107E0C000010F11F107C0C0000FB
:1054400010F21F10820D0000840D00008A0D000074
:105450008C0D000014F21F10880D00008E0E00004D
:1054600014F31F108C0E0000120F000094F31F1095
:10547000140F0000960F0000980F000014F41F1086
:10548000940F00001A10000094F41F101C1000006C
:10549000181000009E10000014F51F109C10000052
:1054A0002211000094F51F1024110000CA230122CC
:1054B0005B00E254B94B5A78FF2A01D100F03EFD5F
:1054C00023009933FF335A60CC2201215200A154AA
:1054D000B24A9278FF2A01D100F034FDDA6001224D
:1054E0001A72AE4AD278FF2A01D100F04DFC5A61FF
:1054F00001221A74A94A1279FF2A01D100F048FC4E
:10550000DA6101221A76A54A5279FF2A01D100F008
:1055100043FC5A6222000121B932FF3211709F4AC6
:105520009279FF2A01D100F03BFCDA6222000121CE
:10553000C132FF321170994AD279FF2A01D100F0AD
:1055400033FC5A6322000121C932FF321170934AA1
:10555000127AFF2A01D100F02BFCDA63220001212C
:10556000D132FF3211708D4A527AFF2A01D100F0F8
:1055700023FC5A6422000121D932FF321170874A7C
:10558000927AFF2A01D100F01BFCDA64220001218B
:10559000E132FF321170814AD27AFF2A01D100F044
:1055A00013FC5A6522000121E932FF3211707B4A57
:1055B000127BFF2A01D100F04DFCDA6522000121A7
:1055C000F132FF321170754A527BFF2A01D100F08F
:1055D00045FC5A6622000121F932FF3211706F4AF0
:1055E000927BFF2A01D100F03DFCDA668022012186
:1055F0009200A2181170694AD27BFF2A01D100F0F3
:1056000035FC5A67822201219200A2181170634A68
:10561000127CFF2A01D100F02DFCDA6784230122DD
:105620009B00E3181A705D4B5B7CFF2B01D100F0EF
:1056300025FC87229200A2181360862301229B007A
:10564000E3181A70554B9B7CFF2B01D100F01AFC1C
:1056500089229200A2181360882301229B00E3187C
:105660001A70B1239B00E25428234C49C85CB22332
:105670009B00E3185870B22080002254086A9A7088
:105680005860087F1A72D860487F1A745861C86AD7
:105690001A76D861486A5862BA239B00E3181A70D8
:1056A000CB7C0C2B00D836E33C4B1B7D102B00D859
:1056B00025E33B4B19780C2900D909E3BF22BF250C
:1056C00001209200A218AD00517060555D68107104
:1056D00095609D6810731561DD681B699561107593
:1056E00013621077C9239B00C922E3185970012166
:1056F0009200A1542B494A6888689A600122186177
:10570000C86809691A711A7398611A7519621A774B
:10571000224B5B7D032B06D8234961180B70D223E3
:105720009B00E3181A701D4B9B7D052B06D81F4A62
:10573000A218137001221E4BE3181A70D423174AC3
:105740009B009169E3181960D3210123302089005F
:1057500061180B701749105C61180860EB2131204B
:10576000C90061180B701449105C61180860EC21C5
:10577000C90061180B703221505C10490126611874
:105780000870ED21C90061180B70516B0C4AA2180A
:1057900011600C4AA2181370FFF737F800E41F10CD
:1057A00038E41F104CE41F10490300004B030000B5
:1057B0004A0300005C07000064070000690700005E
:1057C0006C0700006A070000212201232100A35476
:1057D000914A24311278042A00D870E28E4B5B780B
:1057E000022B00D862E28C4B9B78042B00D859E244
:1057F000894AD378CB7101238B7110790B7248726F
:105800008C218900635450790431611848608D20DF
:105810008000235490790B72C860D0790B74486172
:10582000107A0B76C861507A486295208000201863
:105830000370907AC8629720800020180370D07A95
:1058400048639920800020180370107BC8639B2058
:10585000800020180370507B48649D208000201831
:105860000370907BC8649F20800020180370D07B59
:105870004865A120800020180370107CC865A32013
:10588000800020180370507C4866A52080002018F6
:105890000370907CC866A720800020180370D07C1D
:1058A0004867A920800020180370107DC867AB21CD
:1058B000890061180B70AE21507D89006118086065
:1058C000AD21890061180B70B021907D89006118AD
:1058D0000860AF21890061180B7040216354D17DAD
:1058E000C020E1642100800044310B7160658B733E
:1058F000127E0C2A00D8D2E1474901224B7EA366D2
:10590000230064331A70C0239B00236723006E3387
:105910001A708B7E0C2B00D8BAE184233E49C0203C
:10592000CA7E8000E2502300012280331A708C234B
:10593000E05023008A331A700B7F0C2B00D8A0E1B3
:10594000A0233549C0204A7F8000E2502300012275
:105950009C331A70A823E0502300A6331A708B7F63
:105960000C2B00D886E1BC232B499020CA7F400134
:10597000E25023000122B8331A70C423E050230000
:10598000C2331A702023CB5C0C2B00D86BE121238F
:1059900021499020CA5CB733E25023000122D4335E
:1059A0001A70E0234001E0502300DE331A702223F6
:1059B000CB5C0C2B00D84FE1232317499020CA5C05
:1059C000D133E25023000122F0331A70FC2340014E
:1059D000E0502300FA331A702423CB5C0C2B00D840
:1059E00033E125230C499020CA5CEB33E2502300BD
:1059F00001220D33FF331A708C2340015B00E0500D
:105A000023001733FF331A702623CB5C0C2B00D8EE
:105A100010E10126FEF7D7FE00E01F10EC4B1F78C7
:105A2000002F01D1FEF712FFEE2201215B68D200A8
:105A3000A154002B01DB1D2B01DD01235B42E54A54
:105A4000A1184B600123A354E14A127A032A01D81A
:105A50004A720B72DE4B5B7A0C2B02D8CB7201239D
:105A60008B72DB4B9A7A0A6101220A73D87A0A7523
:105A70008861187B0A77086218698862F320C00081
:105A80002018027058690863F420C00020180270C2
:105A900098698863F520C00020180270D8690864EE
:105AA000F620C00020180270186A8864F720C00031
:105AB00020180270586A0865F820C000201802708B
:105AC000986A8865F920C00020180270D86A0866B4
:105AD000FA20C00020180270186B8866FB20C000F6
